:0200000280007C
:10000000D82B0720351208002D1208002D120800E9
:100010002D1208002D1208002D120800000000000B
:100020000000000000000000000000002D12080089
:100030002D120800000000002D1208002D120800EB
:100040002D1208002D1208002D1208002D12080094
:100050002D1208002D1208002D1208002D12080084
:100060002D1208002D120800000000002D120800BB
:100070002D1208002D1208002D12080000000000AB
:10008000000000002D1208002D1208002D1208009B
:100090002D1208002D1208002D1208002D12080044
:1000A0002D120800000000002D1208006510080045
:1000B0002D1208002D1208002D1208002D12080024
:1000C0002D1208002D1208002D1208002D12080014
:1000D0002D1208002D1208002D1208002D12080004
:1000E0002D1208002D1208002D1208002D120800F4
:1000F0002D1208000348044B834202D0034B03B186
:10010000184770475C7308005C730800000000002B
:1001100005480649091A891001EBD171491002D02E
:10012000034B03B1184770475C7308005C73080009
:100130000000000010B5064C237843B9FFF7DAFF42
:10014000044B13B10448AFF300800123237010BDAA
:10015000740B0720000000005C73080008B5044B16
:100160001BB104490448AFF30080BDE80840CFE765
:1001700000000000780B07205C73080080B483B097
:1001800000AF78607B68072B25D801A252F823F0D6
:10019000B1010800B7010800BD010800C301080053
:1001A000C7010800CB010800CF010800D3010800F7
:1001B0004FF4FA4310E04FF400430DE04FF40043D6
:1001C0000AE0084B08E0084B06E0084B04E0074B48
:1001D00002E0064B00E0002318460C37BD4680BC09
:1001E000704700BF00093D0000127A00001BB700F5
:1001F00080B500AF0620FFF7C1FF02461346DB00C3
:100200009B1A5B00184680BD80B500AFFFF7F0FF7A
:1002100003465B08184680BD80B582B000AF7860A9
:10022000786801F025FB00BF0837BD4680BD80B56A
:1002300000AF0B20FFF7F0FF0C20FFF7EDFF0D20C4
:10024000FFF7EAFF0E20FFF7E7FF00BF80BD80B495
:100250008DB000AF78600B46FB707B68FB62FB786B
:1002600087F82B30FB6A7B627B6A3B623B6A5B09E7
:10027000FB61FB6903F5001303F207735B02BB61CB
:1002800097F82B30012B09D1FB6A7B617B6903F066
:100290001F0301229A40BB691A610CE097F82B30CA
:1002A000002B08D1FB6A3B613B6903F01F0301226D
:1002B0009A40BB695A61FB6AFB60FB6803F01F034D
:1002C00001229A40BB69C3F8A02000BF3437BD4665
:1002D00080BC704780B48BB000AF78600B46FB7079
:1002E0007B687B62FB7887F823307B6AFB61FB6964
:1002F000BB61BB695B097B617B6903F5001303F29A
:1003000007735B023B6197F82330002B09D07B6AAF
:10031000FB60FB6803F01F0301229A403B691A63EC
:1003200008E07B6ABB60BB6803F01F0301229A40B0
:100330003B695A6300BF2C37BD4680BC704780B410
:1003400089B000AF78607B68FB61FB69BB61BB690A
:100350007B617B695B093B613B6903F5001303F239
:1003600007735B02DA6BFB69FB60FB6803F01F033A
:10037000012101FA03F31340002B14BF01230023D2
:10038000DBB218462437BD4680BC70470000000031
:100390002DE9904882B000AF00214D20FFF757FFB4
:1003A00000214F20FFF753FF00215120FFF74FFF9F
:1003B00000215320FFF74BFF00214C20FFF78AFF5D
:1003C00001214E20FFF786FFFFF71EFF03464FF087
:1003D000000445A2D2E9001213EB010B44EB020C1E
:1003E00058466146424A4FF0000301F045FB034680
:1003F0000C46184606F0A8FF01215020FFF76AFFBF
:10040000FFF702FF03464FF0000437A2D2E90012C3
:1004100013EB010B44EB020C58466146344A4FF093
:10042000000301F029FB03460C46184606F08CFF3A
:100430005320FFF784FF03467B6000215020FFF725
:1004400049FFFFF7E1FE03464FF0000426A2D2E980
:10045000001213EB010B44EB020C58466146244A90
:100460004FF0000301F008FB03460C46184606F067
:100470006BFF01215020FFF72DFFFFF7C5FE03465C
:100480004FF0000418A2D2E9001213EB010B44EB69
:10049000020C58466146164A4FF0000301F0ECFA90
:1004A00003460C46184606F04FFF00215020FFF788
:1004B00011FF7B68002B87D101214D20FFF7C7FE7C
:1004C00001214F20FFF7C3FE01215120FFF7BFFE9E
:1004D00001215320FFF7BBFE00BF0837BD46BDE832
:1004E000908800BFAFF300807F9FD5000000000020
:1004F000809FD500000000002DE9904882B000AF39
:100500000346FB7100214E20FFF7E4FEFFF77CFE5F
:1005100003464FF0000432A2D2E9001213EB010BA4
:1005200044EB020C584661462F4A4FF0000301F09D
:10053000A3FA03460C46184606F006FF97F9073063
:10054000DBB2DB09DBB219465320FFF7C3FEFB79B0
:1005500003F04003002B14BF01230023DBB2194634
:100560005120FFF7B7FEFB7903F02003002B14BFE7
:1005700001230023DBB219464F20FFF7ABFEFB79C6
:1005800003F01003002B14BF01230023DBB2194634
:100590004D20FFF79FFE01215020FFF79BFEFFF744
:1005A00033FE03464FF000040DA2D2E9001213EB14
:1005B000010B44EB020C584661460B4A4FF0000316
:1005C00001F05AFA03460C46184606F0BDFE00211B
:1005D0005020FFF77FFE00BF0837BD46BDE890887A
:1005E0007F9FD50000000000809FD5000000000024
:1005F0002DE9904882B000AF0346FB71FFF704FE7F
:1006000003464FF0000436A2D2E9001213EB010BAF
:1006100044EB020C58466146334A4FF0000301F0A8
:100620002BFA03460C46184606F08EFEFB7903F0C3
:100630000803002B14BF01230023DBB2194653200B
:10064000FFF748FEFB7903F00403002B14BF0123DE
:100650000023DBB219465120FFF73CFEFB7903F083
:100660000203002B14BF01230023DBB219464F20E5
:10067000FFF730FEFB7903F00103002B14BF0123C9
:100680000023DBB219464D20FFF724FE0121502044
:10069000FFF720FEFFF7B8FD03464FF0000410A25D
:1006A000D2E9001213EB010B44EB020C58466146F1
:1006B0000D4A4FF0000301F0DFF903460C461846DF
:1006C00006F042FE00215020FFF704FEFFF760FE17
:1006D00000BF0837BD46BDE8908800BFAFF300807B
:1006E0007F9FD50000000000809FD50080B582B0BC
:1006F00000AF0346FB7100214C20FFF7EBFDFB79B7
:100700001846FFF7F9FE00BF0837BD4680BD80B52B
:1007100082B000AF0346FB71FB791846FFF7E6FF96
:10072000FB791846FFF764FF00BF0837BD4680BD60
:1007300080B582B000AF0346FB7101214C20FFF76A
:10074000C9FDFB791846FFF7D7FEFB791846FFF77E
:100750004FFF00BF0837BD4680BD0000000000000D
:100760002DE9F04800AFFFF762FD01214D20FFF7B2
:100770006EFD01214F20FFF76AFD01215120FFF797
:1007800066FD01215320FFF762FD01215020FFF794
:100790005EFD01214C20FFF75AFD01214E20FFF79D
:1007A00056FDFFF731FD03461D464FF000062B4670
:1007B00034464FF000014FF00002A20042EA93726B
:1007C00099000B4614465B1944EB06044FF00001F8
:1007D0004FF00002E20042EA5372D9000B46144681
:1007E0005B1B64EB06044FF000014FF00002220196
:1007F00042EA137219010B4614465B1944EB0604D6
:100800004FF000014FF00002A20142EA9362990109
:100810000B4614461946224669A4D4E90034CD1883
:1008200042EB040628463146674A4FF0000301F0C8
:1008300023F903460C46184606F086FD3020FFF7E4
:1008400055FFFFF7E1FC03461D464FF000062B461F
:1008500034464FF000014FF00002A20242EA9352E8
:1008600099020B4614465B1944EB06044FF0000155
:100870004FF00002A20042EA937299000B46144620
:10088000194622464EA4D4E90034CD1842EB0406A2
:10089000284631464C4A4FF0000301F0EDF803467C
:1008A0000C46184606F050FD3020FFF71FFFFFF7FB
:1008B000ABFC03461D464FF00006AB46B4461BEBAF
:1008C0000B034CEB0C049B46A4461BEB050B4CEBBB
:1008D000060C4FF000014FF000024FEA4C1242EAC2
:1008E000DB624FEA4B111BEB010B4CEB020C1BEBD9
:1008F00005034CEB060432A2D2E900125D1844EB6A
:10090000020628463146304A4FF0000301F0B4F8A1
:1009100003460C46184606F017FD3020FFF7E6FEAA
:10092000FFF736FD2020FFF7E1FEFFF76DFC0346E1
:100930001D464FF00006AB46B4461BEB0B034CEBD9
:100940000C049B46A4461BEB050B4CEB060C4FF02E
:1009500000014FF000024FEA4C1242EADB624FEA1C
:100960004B111BEB010B4CEB020C1BEB05034CEB8F
:10097000060413A2D2E900125D1844EB02062846D1
:100980003146114A4FF0000301F076F803460C4659
:10099000184606F0D9FCFFF7FBFC2820FFF7B7FE4E
:1009A0000820FFF7B4FE0120FFF7B1FE0620FFF795
:1009B000AEFE0C20FFF7ABFE00BFBDE8F08800BF25
:1009C0007F9FD50000000000809FD50080B582B0D9
:1009D00000AF8020FFF79BFE00237B600AE0124BF4
:1009E0001A687B6813441B781846FFF7A1FE7B68E2
:1009F00001337B607B680F2BF1DDC020FFF787FEA2
:100A00000AE0094B1A687B6813441B781846FFF705
:100A10008FFE7B6801337B607B681F2BF1DD00BF9D
:100A20000837BD4680BD00BFBC01072080B582B03D
:100A300000AF7860786800F01BFF00BF0837BD4644
:100A400080BD80B500AF0B20FFF7F0FF0C20FFF753
:100A5000EDFF0D20FFF7EAFF0E20FFF7E7FF00BFD5
:100A600080BD80B489B000AF78607B68FB61FB69B2
:100A7000BB61BB695A09FB697B617B6903F01F039A
:100A8000012101FA03F33A61FB603B69BB60BB687B
:100A900003F5001303F207735B021A46FB68136049
:100AA00000BF2437BD4680BC704780B48DB000AF16
:100AB000786039607B68FB623B68BB62FB6A7B6283
:100AC0007B6A5A09FB6A3B623B6A03F01F03012100
:100AD00001FA03F3FA61BB61BB6A7B61FB693B61AD
:100AE0003B6903F5001303F207735B02FB607B694C
:100AF00003F00803002B03D0FB68BA695A6602E0D2
:100B0000FB68BA691A667B6903F02003002B03D0E7
:100B1000FB68BA691A6502E0FB68BA695A657B69C5
:100B200003F0C003002B03D0FB68BA691A6202E02D
:100B3000FB68BA695A627B6903F08003002B04D01A
:100B4000FB68BA69C3F8842003E0FB68BA69C3F89C
:100B500080207B6903F00103002B06D0FB681A6F2D
:100B6000BB691A43FB681A6706E0FB681A6FBB692A
:100B7000DB431A40FB681A6700BF3437BD4680BCB0
:100B8000704780B48DB000AF78600B46FB707B6817
:100B9000FB62FB7887F82B30FB6A7B627B6A3B62E7
:100BA0003B6A5B09FB61FB6903F5001303F2077302
:100BB0005B02BB6197F82B30012B09D1FB6A7B618B
:100BC0007B6903F01F0301229A40BB691A610CE0A4
:100BD00097F82B30002B08D1FB6A3B613B6903F08F
:100BE0001F0301229A40BB695A61FB6AFB60FB68E4
:100BF00003F01F0301229A40BB69C3F8A02000BF85
:100C00003437BD4680BC704780B48BB000AF78608D
:100C10000B46FB707B687B62FB7887F823307B6A2E
:100C2000FB61FB69BB61BB695B097B617B6903F5A8
:100C3000001303F207735B023B6197F82330002B2C
:100C400009D07B6AFB60FB6803F01F0301229A4016
:100C50003B691A6308E07B6ABB60BB6803F01F0353
:100C600001229A403B695A6300BF2C37BD4680BCC5
:100C7000704780B489B000AF78607B68FB61FB6926
:100C8000BB61BB697B617B695B093B613B6903F5C8
:100C9000001303F207735B02DA6BFB69FB60FB680E
:100CA00003F01F03012101FA03F31340002B14BFCB
:100CB00001230023DBB218462437BD4680BC7047B1
:100CC00080B500AFFFF7BDFE5620FFF7CAFE5520E6
:100CD000FFF7C7FE5D20FFF7C4FE6720FFF7C1FEE8
:100CE0003B20FFF7BEFE01215620FFF74AFF0121FE
:100CF0005520FFF746FF01215D20FFF742FF01214C
:100D00006720FFF73EFF01213B20FFF73AFF00215C
:100D10005620FFF779FF00215520FFF775FF0021CE
:100D20005D20FFF771FF00216720FFF76DFF4FF097
:100D300000624FF04051204800F0D8FD5720FFF7E7
:100D400090FE5820FFF78DFE5920FFF78AFE5A20AB
:100D5000FFF787FE00215720FFF713FF00215820DF
:100D6000FFF70FFF00215920FFF70BFF00215A204A
:100D7000FFF707FF80215720FFF797FE80215820BB
:100D8000FFF793FE80215920FFF78FFE80215A2024
:100D9000FFF78BFE08215720FFF787FE0821582018
:100DA000FFF783FE08215920FFF77FFE08215A2014
:100DB000FFF77BFE00BF80BD00100E4080B58AB0FB
:100DC00000AF00237B6100233B610023FB60002315
:100DD000BB6000237B6000233B6000237B62002319
:100DE0003B620023FB610023BB615720FFF741FFFB
:100DF00003463B615820FFF73CFF03465B00FB6066
:100E00005920FFF736FF03469B00BB605A20FFF7CF
:100E100030FF0346DB007B603A69FB681A43BB681E
:100E200013437A6813437B611D4B1B6803F0010376
:100E3000002B04D03B69002B01D101237B62184BAE
:100E40001B6803F00203002B04D0FB68002B01D1C8
:100E500002233B62124B1B6803F00403002B04D0F7
:100E6000BB68002B01D10423FB610D4B1B6803F011
:100E70000803002B04D07B68002B01D10823BB6141
:100E80007A6A3B6A1A43FB691343BA6913433B60AE
:100E9000034A7B6913603B6818462837BD4680BD0E
:100EA000900B072080B500AF0F4A00210F4800F0DB
:100EB0005CFD102200210D4800F0B9FD0C4A002114
:100EC0000A4800F0A2FD0B4A0021084800F079FD15
:100ED000084A0021054800F086FD0021034800F083
:100EE00060FD00BF80BD00BF02C4060600000840D0
:100EF000E80D2800F406140080B483B000AF034668
:100F0000FB71FB7903F01F03012202FA03F1054A8A
:100F100097F907305B0942F8231000BF0C37BD4634
:100F200080BC704700E100E080B582B000AF78601F
:100F3000786800F09DFC00BF0837BD4680BD00000A
:100F400080B584B000AF00F025FB3E4B4FF400426B
:100F50005A600C20FFF7E8FF0B20FFF7E5FF1B208E
:100F6000FFF7E2FF4FF000624FF08051364800F08B
:100F7000BDFC4FF000724FF08051334800F0B6FCDA
:100F80001B20FFF7B9FFFFF7EBFBFFF799FEFFF719
:100F900089FF0123FB603223BB6000237B60FFF7E6
:100FA0000DFF78607B6803F00103002B05D0FB6820
:100FB000132B02D8FB680133FB607B6803F002034C
:100FC000002B05D0FB68012B02D9FB68013BFB60BD
:100FD0007B6803F00403002B05D0BB685E2B02D8AE
:100FE000BB680533BB607B6803F00803002B05D0AA
:100FF000BB68052B02D9BB68053BBB60134B1A6865
:10100000FB685B01B2FBF3F3114A1360104B1B68E2
:10101000BA6802FB03F30F4AA2FB03235B090E4AE3
:1010200013600E4B1868FA68BB680D4900F052FF58
:1010300038600A4B1A683B68134420221A70FFF785
:10104000C5FCACE7501A0E4000100E40C00107204E
:10105000980B07201F85EB51940B0720BC0107203C
:101060003070080080B500AF0D4B1B681A46002198
:101070000C4800F0A6FC0C4B1B681A4600210948DE
:1010800000F0C3FC064B1B681A460021054800F01F
:10109000AAFC0021034800F0DDFC00BF80BD00BFBA
:1010A000940B072000000840980B072080B400AF85
:1010B000574B1B6B03F00303032B00F28A8001A242
:1010C00052F823F0D5100800F5100800451108006B
:1010D000451108004F4B5B6903F08003002B04D0DF
:1010E0004D4B4FF400421A6073E04B4B4FF4FA4201
:1010F0001A606EE0464B1B6A03F08073002B03D02E
:10110000454B464A1A6064E0434B454A1A60404BDF
:101110001B6A03F07003102B04D0202B08D0002B87
:101120000ED00EE03C4B1B685B003B4A136008E0AE
:10113000394B1A6813465B001344374A136000E0CA
:1011400000BF46E0324B1B6A03F08073002B03D0D4
:10115000314B324A1A601CE02F4B314A1A602C4B3B
:101160001B6A03F07003102B04D0202B08D0002B37
:101170000ED00EE0284B1B685B00274A136008E086
:10118000254B1A6813465B001344234A136000E0A2
:1011900000BF1F4B1B6B03F00303022B15D11C4B2D
:1011A0009B6A1B0CC3F30A0301331B4A126802FB40
:1011B00003F3194A1360164B9B6ADBB2164A126896
:1011C000B2FBF3F3144A136002E0134B154A1A60A2
:1011D00000BF0F4B1B6B03F07003702B08D10E4B3D
:1011E0001B68114AA2FB03235B080B4A13600AE049
:1011F000074B1B6B1B0903F00703074A126822FA0F
:1012000003F3054A136000BFBD4680BC704700BFB2
:1012100000060E40101A0E40C0010720001BB70048
:1012200000093D00001C4E0EABAAAAAA80B400AF74
:10123000FEE7000080B582B000AF1E4B7B601E4B06
:101240003B607A683B689A420CD007E07A68131DCD
:101250007B603B68191D396012681A603B68174A49
:101260009342F3D3164B3B6004E03B681A1D3A608F
:1012700000221A603B68134A9342F6D3124B7B60FC
:101280007B68124A23F0604323F07F0393607B68FE
:10129000B3F1005F09D37B680D4A934205D80B4B2D
:1012A0009B680A4A43F00053936000F087FDFFF704
:1012B00047FEFEE75C73080000000720740B072060
:1012C000740B0720D80B07200000080000ED00E099
:1012D000FFFF0F2080B582B000AF78607B68072BDE
:1012E00031D801A252F823F0451308000913080071
:1012F000111308001913080021130800291308000E
:10130000311308003B130800002000F0D7F91AE061
:10131000012000F0D3F916E0002000F005FA12E0F9
:10132000102000F001FA0EE0202000F0FDF90AE0A4
:101330003E21002000F030FA05E03E21012000F0BF
:101340002BFA00E000BF00BF0837BD4680BD00BFDC
:1013500080B582B000AF78607B68072B26D801A2E9
:1013600052F823F085130800891308008913080038
:101370009B1308009B1308009B1308009B13080095
:101380009B130800012312E000F0B4F90346002B80
:1013900014BF01230023DBB209E000F039FA034651
:1013A000002B14BF01230023DBB200E0002318460A
:1013B0000837BD4680BD00BF80B483B000AF786001
:1013C0007B68072B25D801A252F823F0ED13080003
:1013D000F3130800F9130800FF13080003140800B2
:1013E000071408000B1408000F1408004FF4FA4308
:1013F00010E04FF400430DE04FF400430AE0084BC7
:1014000008E0084B06E0084B04E0074B02E0064BFF
:1014100000E0002318460C37BD4680BC704700BF73
:1014200000093D0000127A00001BB70080B582B0B1
:1014300000AF0346FB7100BFFB791846FFF788FF3A
:10144000034683F00103DBB2002BF5D100BF083760
:10145000BD4680BD80B586B000AFF8607A603B6065
:101460000B46FB727B68002B07D13B68002B04D135
:10147000FB684FF470021A6019E0FB7A1846FFF718
:101480009BFF02467B68B2FBF3F37B617B693A68A2
:1014900002FB03F37B613B68013B1A04064B1340DC
:1014A0007A68D2B2134343F47C52FB681A6000BFDF
:1014B0001837BD4680BD00BF0000FF0780B582B071
:1014C00000AF786039603B68002B08D100F0ACF9C0
:1014D0007B681B68074A43F00053936205E07B6812
:1014E0001B68044A43F48033D36100BF0837BD460C
:1014F00080BD00BF00060E4080B582B000AF7860AE
:101500007B68002B03D100F09BF9034602E000F05A
:10151000A3F9034618460837BD4680BD80B582B0A2
:1015200000AF0346FB71FB79033B042B08D8FB7922
:101530001846FFF7CFFEFB791846FFF777FF00E06C
:1015400000BF00BF0837BD4680BD80B582B000AF88
:10155000786000BF7868FFF7CFFF0346002BF9D013
:10156000002318460837BD4680BD80B500AF062071
:10157000FFF722FF02461346DB009B1A5B0018466A
:1015800080BD80B500AFFFF7F0FF03465B0818464B
:1015900080BD000080B582B000AF114805F0D0FEDC
:1015A0000620FFF7BBFF381D0E2301220621FFF79F
:1015B00051FF3B1D00211846FFF780FF0020FFF779
:1015C000C4FF102000F03AF8FFF770FDFFF7D9FFD5
:1015D0000346184605F0B4FE00BF0837BD4680BD7F
:1015E00000BD010580B485B000AF7860104BFB6092
:1015F000104B1B68002B02D10E4B0F4A1A600D4B8B
:101600001B68BB60BA687B681344FA689A4202DAC6
:101610004FF0FF3306E0074B1A687B681344054A16
:101620001360BB6818461437BD4680BC704700BFC6
:10163000FC7F08209C0B0720D82B072080B485B0A6
:1016400000AF78601C4B1B6B23F070021A497B685B
:1016500013430B634FF40063FB6007E0FB68002B50
:1016600001D1012323E0FB68013BFB60124B9B6E21
:1016700003F00803002BF1D00F4B1B6B23F0030387
:101680000D4A43F0020313634FF40063FB6007E06D
:10169000FB68002B01D1012309E0FB68013BFB60E3
:1016A000054B9B6E03F00803002BF1D00023184676
:1016B0001437BD4680BC704700060E4080B483B02E
:1016C00000AF78607B68012B07D1084B9B68074A05
:1016D00043F0254343F480139360044B044A1A609B
:1016E00000BF0C37BD4680BC704700BF101A0E40CB
:1016F000080000A580B400AF094B5B6903F08003CC
:10170000002B07D0074B9B6E03F08003002B01D00A
:10171000012300E000231846BD4680BC704700BF8F
:10172000101A0E4000060E4080B483B000AF7860FF
:10173000184B1B6A174A43F45C1343F00803136207
:1017400000BF144B9B6E03F40033002BF9D0114BF8
:101750001B6A23F45C1323F070037A6813430D4A69
:1017600043F45C13136200BF0A4B9B6E03F4003317
:10177000002BF9D0074B1B6A23F09B7323F48033B3
:10178000044A43F45C13136200BF0C37BD4680BCAF
:10179000704700BF00060E4080B483B000AF786091
:1017A00039607B68002B08D0164B1B6A164A1A401A
:1017B0001449164B13430B621EE0124B1B6A23F4B1
:1017C0005C1323F003033A68120292B213430D4AEA
:1017D00043F45C1343F00103136200BF094B9B6E9B
:1017E00003F00103002BF9D0064B1B6A054A43F0B6
:1017F0009B7343F48033136200BF0C37BD4680BC3B
:10180000704700BF00060E40FCFFC8FE0200370113
:1018100080B400AF034B9B6E03F480331846BD4683
:1018200080BC704700060E4080B400AF034B4FF001
:1018300000529A6200BFBD4680BC704700060E4051
:1018400080B400AF034B9B6E03F002031846BD4605
:1018500080BC704700060E4080B400AF034B9B6E07
:1018600003F040031846BD4680BC704700060E409A
:1018700080B483B000AF78607B682C2B01D9012342
:101880002DE07B681F2B12D8174B9A6901217B68CA
:1018900001FA03F31A4001217B6801FA03F39A422B
:1018A0001CD001227B689A400F4B1A6116E07B68BE
:1018B000203B7B600C4BD3F8082101217B6801FAA7
:1018C00003F31A4001217B6801FA03F39A4205D021
:1018D00001227B689A40044BC3F80021002318467C
:1018E0000C37BD4680BC704700060E4080B487B000
:1018F00000AFF860B9607A60FB687A685A64BB68C8
:10190000B3F1805F1FD0B3F1805F05D8002B27D0E3
:10191000B3F1006F0AD01FE0B3F1405F20D0B3F104
:10192000605F1DD0B3F1205F1AD015E0FB681B6F1C
:101930007B61FB681A6F7B68D9437B690B401A4057
:10194000FB681A6708E0FB681B6F7B617A687B693C
:101950001A43FB681A6700BFFB687A685A6000E0A8
:1019600000BF1C37BD4680BC704780B487B000AF55
:10197000F860B9607A60FA68BB689B0113447B61C8
:101980007B6902221A607B694FF0FF329A627B69A1
:101990001B6A7B697A685A6000BF1C37BD4680BCF1
:1019A000704780B483B000AF786039607A683B6874
:1019B0009B01134405221A6000BF0C37BD4680BC52
:1019C000704780B485B000AFF860B9607A60FA689B
:1019D000BB689B01134414337A681A6000BF143744
:1019E000BD4680BC704780B485B000AFF860B96078
:1019F0007A60FA68BB689B01134418337A681A60EE
:101A000000BF1437BD4680BC704780B485B000AFBE
:101A1000F860B9607A60FA68BB689B0113441C33B4
:101A20007A681A6000BF1437BD4680BC704780B426
:101A300087B000AFF860B9607A60FA68BB689B0154
:101A400013447B617B697A685A6200BF1C37BD46CC
:101A500080BC704780B485B000AF786039607A6828
:101A60003B689B011344FB60FB681B6A18461437F4
:101A7000BD4680BC7047000053B94AB9002908BF71
:101A800000281CBF4FF0FF314FF0FF3000F074B959
:101A9000ADF1080C6DE904CE00F006F8DDF804E0C5
:101AA000DDE9022304B070472DE9F0478C46044677
:101AB000089E002B4BD18A42154667D9B2FA82F2B2
:101AC0004AB1C2F1200701FA02F320FA07F7954064
:101AD00047EA030C94404FEA154EBCFBFEF71FFA91
:101AE00085F80EFB17C307FB08F9210C41EA0343F5
:101AF000994509D9EB1807F1FF3180F01C81994510
:101B000040F21981023F2B44A3EB0903B3FBFEF023
:101B10000EFB103300FB08F1A4B244EA0344A142D7
:101B200009D92C1900F1FF3380F00781A14240F25E
:101B3000048102382C4440EA07400027641A1EB191
:101B40000023D440C6E900433946BDE8F0878B4204
:101B500009D9002E00F0EC800027C6E900013846C4
:101B60003946BDE8F087B3FA83F7002F48D18B429E
:101B700002D3824200F2FB80841A61EB030301204E
:101B80009C46002EE0D0C6E9004CDDE702B9FFDE3E
:101B9000B2FA82F2002A40F08F800127491B4FEAF7
:101BA00015481FFA85F9B1FBF8FE08FB1E1109FB69
:101BB0000EF04FEA144C4CEA0143984207D9EB1857
:101BC0000EF1FF3102D2984200F2CD808E461B1AF0
:101BD000B3FBF8F008FB103309FB00F9A4B244EAA8
:101BE0000344A14507D92C1900F1FF3302D2A145C6
:101BF00000F2B6801846A4EB090440EA0E409EE7C6
:101C0000C7F12005BB4022FA05FC4CEA030C21FA7F
:101C100005F44FEA1C4EB4FBFEF91FFA8CF80EFBDC
:101C2000194420FA05F3B94009FB08FA19430B0CD3
:101C300043EA0444A24502FA07F200FA07F30BD97B
:101C40001CEB040409F1FF3080F08880A24540F2CB
:101C50008580A9F102096444A4EB0A04B4FBFEF0F8
:101C60000EFB104400FB08FA89B241EA0444A24585
:101C700008D91CEB040400F1FF316BD2A24569D9ED
:101C80000238644440EA0940A0FB0289A4EB0A043C
:101C90004C454146CE4654D351D0002E69D05A1AF5
:101CA00064EB0E0404FA05F522FA07F3FC401D4329
:101CB000C6E90054002747E79540C2F1200321FA06
:101CC00003F04FEA1548B0FBF8F71FFA85F908FB57
:101CD000170024FA03F3914007FB09FC0B43190C8E
:101CE00041EA00418C4504FA02F407D9691807F16A
:101CF000FF3031D28C452FD9023F2944A1EB0C0192
:101D0000B1FBF8F008FB101C00FB09FE99B241EA98
:101D10000C418E4507D9691800F1FF3318D28E4562
:101D200016D902382944A1EB0E0140EA07473AE7E9
:101D30003746304608E70F46E6E61846FBE64345D9
:101D4000ABD2B8EB020169EB0C0201389646A4E76E
:101D50001846E8E7084695E70746CFE781467BE760
:101D600002382C4447E7AEF1020E2B442FE73846E9
:101D700007E73746E8E600BF704700BF002301468B
:101D80001A46184601F06ABB38B50A4C0A4D641B66
:101D9000A4100AD004F18043013B05EB8305013C0C
:101DA00055F804399847002CF9D1BDE8384005F0C2
:101DB000BFBA00BF547308005073080070B50D4ED1
:101DC0000D4D761BB61006D00024013455F8043BA7
:101DD0009847A642F9D1094E094D05F09FFA761BA6
:101DE000B61006D00024013455F8043B9847A642AB
:101DF000F9D170BD287308002873080030730800FB
:101E000028730800F0B4860743D0541E002A3ED041
:101E1000CAB2034602E014F1FF3438D303F8012BB1
:101E20009D07F8D1032C2BD9CDB245EA05250F2CFF
:101E300045EA054516D9A4F110073F0903F120062C
:101E400006EB071603F1100242E9045542E9025578
:101E50001032B242F8D104F00F040137032C03EB27
:101E600007130DD91E462246043A032A46F8045B9E
:101E7000FAD8221F22F003020432134404F00304B0
:101E80002CB1C9B21C4403F8011B9C42FBD1F0BC2D
:101E9000704714460346C5E70CB470B56FF00045B3
:101EA0009CB020AC54F8042B094E029106912346B5
:101EB00002A901940795CDE9045600F05BF80022D1
:101EC000029B1A701CB0BDE8704002B0704700BFA2
:101ED0000802FFFF0EB4034630B56FF000449CB01B
:101EE0001FA951F8042B0A480A4D02930693019149
:101EF0000B46006802A90794CDE9044500F03AF8C2
:101F00000022029B1A701CB0BDE8304003B070473D
:101F1000C80107200802FFFF20F0030110F00300B2
:101F2000C0F1000051F8043B00F1040C4FEACC0C66
:101F30006FF000021CBF22FA0CF213434FF0010CA9
:101F40004CEA0C2C4CEA0C4CA3EB0C0222EA0302E8
:101F500012EACC1204BF51F8043B0430F4D0C2F1B1
:101F6000000102EA0102B2FA82F2C2F11F0200EBA2
:101F7000D20070472DE9F04FC3B00C460C9190464B
:101F80000F930D9002F096FB036818461A93FFF723
:101F9000C3FFA38919901D0603D52369002B00F008
:101FA000368700230DF1C80AD146C346CDE9163362
:101FB000CDE9263315931393149318931B930A9327
:101FC000CDF894A09BF80030002B00F09780252BD3
:101FD0005C4602D11AE0252B03D014F8013F002BF8
:101FE000F9D1A4EB0B0575B1DDE9263201332A44A2
:101FF000072BC9E900B5CDE9263277DC09F10809DC
:102000000A9B2B440A932378002B77D000234FF0B0
:10201000FF301A468DF8773019460B93984663784F
:1020200004F1010B09901F460BF1010BA7F12003EE
:10203000582B00F27483DFE813F0D10272037203AD
:10204000CC02720372037203720372037203BF0243
:10205000BA02720366034C0372036B03B600B60048
:10206000B600B600B600B600B600B600B600720301
:1020700072037203720372037203720372037203B8
:1020800072033403F5027203F502720372037203E2
:102090007203F00272037203A500720372037203EB
:1020A0007203720375007203720398027203720363
:1020B0007203720372037203720372037203720378
:1020C00079012B01F502F502F50226012B017203BD
:1020D0007203190172030301A700CA00C50072034D
:1020E000DA007203770072037203D90225AADDE9D0
:1020F0000C1003F00DFD40B9D14681E7279B23B1B9
:102100000D9825AA0C9903F003FD0C9B9B8913F0F5
:10211000400F0A9B18BF4FF0FF330A930A9843B051
:10212000BDE8F08F48F0100818F0200F00F0488547
:102130000F9C073424F0070303F10802D3E900459C
:1021400001230F920026099A8DF87760013200F082
:10215000098428F08002079254EA050240F0BC800E
:10216000099A002A40F0CC86002B40F0ED8418F04C
:1021700001030E9300F06085302342AA02F8413D2E
:102180001192CAE048F0100818F0200300F00D8505
:102190000F9C073424F0070303F10802D3E900453C
:1021A0000F920023CEE70020A7F130031BF8017B3C
:1021B00000EB800003EB4000A7F13003092BF5D9B9
:1021C0000B9033E748F020089BF800302BE747F6E8
:1021D00030030F9AADF87830131D0F939F4B14689E
:1021E000189348F00208002502237827AAE7002563
:1021F0000F9A8DF877501368141D1193002B00F07F
:102200003086099A531C00F0D8862946119802F0AE
:102210001DFD002800F0CE87119B0995C31ACDE95A
:102220000E34CDF81C8023EAE3739DF877600893A1
:102230001295002E00F08D80089B0133089388E0F2
:10224000002A41F0EF800F9A18F0200F52F8043B5B
:102250000F9240F02A8518F0100F40F0278618F0F2
:10226000400F00F023860A9A1A80ABE69BF80030F4
:102270006C2B03BF9BF8013048F020080BF1010BD9
:1022800048F01008CFE648F040089BF80030CAE656
:10229000002A41F0C38018F0200F00F00B820F9C41
:1022A000073424F0070303F108020F92D3E9004535
:1022B000002C75F10003C0F2CB84099B9DF8776078
:1022C000013300F0CF8428F08002079254EA05021F
:1022D0004FF001033FF444AF012B00F04883022B81
:1022E00000F09F83514600E01146E20842EA457241
:1022F000E80804F0070305461446303354EA0500A5
:1023000001F8013C01F1FF32EED107981192C007AC
:1023100000F17584AAEB02030E93099B0E9A934277
:10232000B8BF134608930023129382E700230121CC
:102330000F981E4602688DF8773009931293031D9B
:102340000F9328AB0891CDF81C800E918DF8A0203A
:102350001193079B13F00203109302D0089B0233E2
:102360000893079B279C13F084083FD10B9B089A86
:102370009D1A002D3ADD102D269B29DD4A46214667
:10238000A946DDE90C54102606E0A9F11009B9F1BF
:10239000100F02F1080218DD013331481031072B0C
:1023A000CDE92631C2E90006EFDD25AA29462046FF
:1023B00003F0AEFB00287FF4A8AEDDE92631A9F1D9
:1023C0001009B9F1100F5246E6DC4D460C46914615
:1023D0000133234A2C44072BCDE92634C9E90025D3
:1023E00000F368859DF8776009F1080976B101214D
:1023F000269B0C440B440DF17702072BCDE92634C4
:10240000C9E9002100F3F78209F10809109B6BB1BB
:102410000221269B0C4401331EAA072BCDE926344A
:10242000C9E9002100F3F28209F10809B8F1800F2F
:1024300000F0E581099B0E9A9D1A002D3FDD102DBD
:10244000269A40F39285DFF81C804B464046214691
:10245000DDE90C94B846102607460AE08C700800A7
:102460004870080058700800103D102D03F1080353
:1024700015DD01321031072ACDE92621C3E90076A6
:10248000F2DD25AA4946204603F042FB00287FF4EE
:102490003CAEDDE92621103D102D5346E9DC99467E
:1024A0003B460C464746984601322C44072ACDE964
:1024B0002624C9E9008500F3CB8209F10809079BAE
:1024C000DE0500F14281269B0E9A013311991444D6
:1024D000072B2794C9E90012269300F3818209F1A2
:1024E0000809079B5B0731D50B9B089A9D1A002DA5
:1024F0002CDD102D269B1FDDDDE90C87102604E066
:10250000103D102D09F1080916DD0133C64A1034BB
:10251000072BCDE92634C9E90026F1DD25AA41467D
:10252000384603F0F5FA00287FF4EFADDDE92634F4
:10253000103D102DD146E8DC0133BB4A2C44072B5B
:10254000CDE92634C9E9002500F36C83DDE90A32C0
:1025500008998A42ACBF9B185B180A93002C40F084
:102560009F810023D14626932CE5002A40F06A87FC
:10257000AE4B18F0200F189340D00F9C073424F076
:10258000070303F108020F92D3E9004518F0010F89
:1025900000F0C38054EA050300F0BF8030238DF8BB
:1025A00079708DF8783048F002080223CAE59BF86C
:1025B000003001222B2136E50F9B1C68181D002CD2
:1025C0000B949BF800300F90BFF62DAD60420B903E
:1025D0009BE048F001089BF8003024E59BF80030B0
:1025E00000297FF420AD012220211CE5002A40F0C3
:1025F00021878F4B18F0200F1893BED10F9B18F036
:10260000100F53F8044B0F9340F01A8318F0400F4B
:1026100000F01683A4B20025B8E748F008089BF83C
:10262000003000E5002A40F0ED860F9C073424F0CE
:102630000706D6E9002323F00044159215461046FC
:102640001493083621464FF0FF327A4B0F9604F070
:10265000B1FC002840F04083284621464FF0FF326D
:10266000744B04F089FC002840F03683DDE9150244
:10267000179B149904F076FC002840F02F859DF8F4
:10268000776003210020CDE908106B4A6B4B472F80
:10269000D8BF1A4628F0800407940E911290119228
:1026A000C7E5002A40F0C28648F0100818F0200F55
:1026B0007FF4F5AD0F9B18F0100F53F8044B0F93F8
:1026C00040F0C08218F0400F00F0BC8224B2E51741
:1026D000EEE59BF800700BF101002A2F00F07D86DB
:1026E000A7F13003092B834600F2608500201BF818
:1026F000017B00EB800003EB4000A7F13003092BC6
:10270000F5D9099092E49BF8003048F004088AE477
:1027100048F080089BF8003085E4022312E5002A87
:1027200040F08C86002F3FF4E9AC002301221E46C6
:102730008DF877300993129328AB08928DF8A0702A
:10274000CDF81C800E92119303E6652F40F3B18003
:10275000DDE91502179B149904F0FAFB002800F03C
:1027600082810121269B364A0B440C44072B279477
:102770002693C9E9002100F3EE8309F108091F9BA4
:10278000139A279C934280F24882269B199A013320
:102790001A991444072BC9E90012CDE9263400F335
:1027A000558309F10809139B5D1E002D7FF799AE33
:1027B000102D269A40F39F85DFF888802346102647
:1027C00044460D9FDDF8308005E009F10809103D11
:1027D000102D40F3998301321033072ACDE92623C7
:1027E000C9E90046F1DD25AA4146384603F090F9D3
:1027F00000287FF48AACDDE92623D146E7E70B9B6E
:10280000089A9D1A002D7FF715AE102D269A40F3D9
:10281000B384DFF830804B4640462146DDE90C9416
:10282000B8461026074614E0487008007870080083
:102830008C700800FFFFEF7F6C7008006870080064
:10284000A870080058700800103D102D03F108030F
:1028500015DD01321031072ACDE92621C3E90076C2
:10286000F2DD25AA4946204603F052F900287FF4FC
:102870004CACDDE92621103D102D5346E9DC99468C
:102880003B460C464746984601322C44072ACDE980
:102890002624C9E9008500F3438309F10809C9E545
:1028A00025AADDE90C1003F033F900283FF459AEF6
:1028B0002BE4139A269B012A04F1010403F101057C
:1028C00009F1080640F387810123119A072DC9F801
:1028D0000020CDE92654C9F8043000F3F982199B91
:1028E00001351A9A1C44072DCDE92654C6E9002368
:1028F00000F3FA8208366F1C0E970997139FDDE9E3
:102900001502179B1499013F06F1080904F020FBFA
:10291000002840F01F813C44119B7760099F0133E0
:10292000072F33602794269700F3808206F1100367
:102930004E469946AA1C09921B9A21AB1444726018
:10294000099A2794072A269233607FF7CAADDDE9FA
:102950000C1025AA03F0DCF800287FF4D6ABD14692
:10296000279CBEE5012BCDF81C807FF4B8AC002D70
:1029700008BF0A2C80F07D8142AB303403F8414D12
:10298000119301230E93C8E425AADDE90C1003F08E
:10299000BFF800287FF4B9ABD1461F9B279C1BB919
:1029A000139A002A00F01483269A199901321A9872
:1029B0000C44072A2794C9E90001269200F30684F3
:1029C00009F10809002BC0F23F84139B01321199D1
:1029D0001C44072ACDE92624C9E900137FF77FADFF
:1029E000DDE90C1025AA03F093F800287FF48DABE5
:1029F000279CD14675E525AADDE90C1003F088F87F
:102A000000287FF482ABD146279CFFE425AADDE9AC
:102A10000C1003F07DF800287FF477ABD146279C9B
:102A200004E55246DDF860C0230943EA057328092E
:102A300004F00F0105461C461CF8013002F8013D68
:102A400054EA0503F0D1AAEB020311920E9364E459
:102A500025AADDE90C1003F05BF800287FF455ABE4
:102A6000D146279C2BE51F9B002B40F36582DDE9B7
:102A700012329342A8BF1346002B1D460CDD269B45
:102A8000119A01332C44072B2794C9E9002526937A
:102A900000F32A8309F10809129B002DA8BF5B1BD4
:102AA000002B1D4600F38C811F9B139A9342C0F2AA
:102AB000EE81079AD10700F1EA81139A1298D31A8E
:102AC000151A9D42A8BF1D46002D0FDD269A1199AB
:102AD000013201442C44072AC9F800102794C9F890
:102AE0000450269200F3348309F10809002DB4BF85
:102AF0001D465D1B002D7FF7F4AC102D269A40F388
:102B0000FA83DFF870862346102644460D9FDDF8D1
:102B1000308005E009F10809103D102D40F3F481E3
:102B200001321033072ACDE92623C9E90046F1DD39
:102B300025AA4146384602F0EBFF00287FF4E5AABB
:102B4000DDE92623D146E7E7099BCDF844A00E93A3
:102B5000FFF7E3BB002F7FF7EFAE102F40F31A848F
:102B6000DFF810863346224646464FF010090D9C8A
:102B7000DDF830800E9D05E00833103F102F40F344
:102B8000F88101351032072DCDE92652C3E90069DD
:102B9000F2DD25AA4146204602F0BAFF00287FF464
:102BA000B4AADDE926525346E7E70F9A52F8044BE0
:102BB0000F9218F0100200F087800025FFF7C2BACC
:102BC0000F9B18F0100F53F8044B0F9374D000258F
:102BD0000123FFF7B7BA079AD2073FF575AE012276
:102BE0001199072DC9F80010CDE92654C9F8042021
:102BF00000F39D820233099309F110099CE6302B02
:102C000000F03F813023119A023902F8013CAAEB0F
:102C100001030E931191FFF780BB079BDD073FF582
:102C2000B4AD5EE425AADDE90C1002F071FF0028C6
:102C30007FF46BAA279C89E4CDF844A0FFF76DBB15
:102C40000025A3E4E517002C75F10003BFF635ABB2
:102C50002D26099B644265EB450501338DF87760AD
:102C60007FF431AB002D08BF0A2CCDF81C80FFF497
:102C700083AED046204629460A220023FEF7FCFEFA
:102C8000303208F8012D2046294600230A22FEF79B
:102C9000F3FE04460D4654EA0503EBD1AAEB080304
:102CA000CDF844800E93FFF738BB0A9A1046D1172F
:102CB000C3E90001FFF786B918F0400F18BFA4B2AE
:102CC00000250123FFF73EBA18F040031CBF13464E
:102CD000A4B20025FFF736BA159C22462046149C64
:102CE0002346214604F066F9002840F02E83099A15
:102CF00027F02003541C089300F04282472B00F079
:102D00006C8148F480730793DDE914361D1EB6BF4D
:102D100003F1004500232D23662F109300F033822A
:102D2000462F00F07482089B3246452B4FF002007C
:102D30002B4600F05881099C23A9CDE90004049199
:102D400020A81FA9CDE902100D9800F057FC672FAD
:102D5000119040F0548318F0010F00F06981119B2D
:102D6000099A9C18169A3046179B294604F0F0F8E9
:102D7000002800F0D0812346119A9B1A13931F9BC1
:102D80001293089B472B00F05C81662F40F0608116
:102D9000129B002B099B40F3F582002B40F0E88248
:102DA00018F0010F40F0E482129B08930E93109BE1
:102DB000002B40F07A8109939DF87760FFF739BACC
:102DC000102B269A40F3EA82DFF8A88323461026C8
:102DD00044460D9FDDF8308005E009F10809103DFB
:102DE000102D40F3DC8001321033072ACDE9262371
:102DF000C9E90046F1DD25AA4146384602F088FEC1
:102E000000287FF482A9DDE92623D146E7E74021A7
:102E10000D9801F057FC0C9B18601861002800F019
:102E2000F58240230C9A5361FFF7BBB825AADDE970
:102E30000C1002F06DFE00287FF467A9DDE926344E
:102E4000013309930DF1D009564675E525AADDE950
:102E50000C1002F05DFE00287FF457A9D146279C94
:102E6000A1E4099B119E062B28BF062308930E930D
:102E7000BE4B09960F94CDF81C8012961193FFF764
:102E8000D8B9119BAAEB03030E93FFF746BA269A13
:102E9000199901321A980C44072A2794C9E90001AC
:102EA000269200F32C8109F1080906E60A9A1A60B5
:102EB000FFF788B825AADDE90C1002F029FE0028EA
:102EC0007FF423A9D1469DF87760279CFFF78EBA3F
:102ED00025AADDE90C1002F01BFE00287FF415A9DD
:102EE000DDE926545646FAE425AADDE90C1002F085
:102EF0000FFE00287FF409A9DDE926545646FAE4BE
:102F0000012B7FF4ECA937E5A0461C4601322C4486
:102F1000072ACDE92624C9E900857FF7E0AA5FE505
:102F200025AADDE90C1002F0F3FD00287FF4EDA8DE
:102F3000D146279CFFF77EBA0120269A8C4902448D
:102F40000444072ACDE92624C9E900103FF71CAD47
:102F500009F1080923E525AADDE90C1002F0D8FDE6
:102F600000287FF4D2A8D14609E4DFF80882FFF7F1
:102F70009BBAB0461E466B1C1446099306F1080224
:102F8000099B3C44072B2794C6E9008726933FF70B
:102F90004DAF0133099302F108091646CCE4A0466F
:102FA0001C4601322C44072ACDE92624C9E90085B4
:102FB00000F33F8109F1080976E511980995FEF7BC
:102FC000ABFFCDF81C80CDE90E040346FFF72BB90B
:102FD000079AD0077FF585AAE6E4002A134608BFC2
:102FE000012309938DE6099900904C1C23A920A880
:102FF00004911FA9CDE9021001940D980E9400F0E0
:10300000FDFA1190472F40F0E38118F0010F00F016
:10301000D881119B0E9A462F03EB02047FF4A2AED7
:10302000119B1B78302B00F069811F9B1C4499E693
:103030001F9A239B1292119A9B1A1393089B472B5A
:1030400006D1129BDA1C02DB099A9A4234DA023F5B
:10305000129B8DF88470013B002BB4BF2D222B22D4
:103060001F93B8BF129B8DF88520B8BFC3F1010331
:10307000092B00F30D81302213448DF887308DF831
:10308000862022AB21AA9B1A139A1B93012A134470
:103090000E9340F350810E9B199A13440E9323EA2A
:1030A000E37308930023129381E62D2600238DF805
:1030B00077600993FFF7C0B8DDE912318B42C0F2A7
:1030C000938018F0010F00F01081129B199A672766
:1030D00013440E9323EAE373089368E62D231E46F8
:1030E0008DF87730FFF7CDBA25AADDE90C1002F094
:1030F0000FFD00287FF409A8D146279CCCE425AA1F
:10310000DDE90C1002F004FD00287EF4FEAFD1468C
:103110001F9B279CD1E4239BA342BFF42DAE3021FB
:103120005A1C23921970239B9C42F9D824E625AAA5
:10313000DDE90C1002F0ECFC00287EF4E6AFDDE9DE
:1031400026340133564609930DF1D009FFF7F4BB3D
:1031500025AADDE90C1002F0DBFC00287EF4D5AFD7
:103160001F9B139AD146279CD31ABFE4A070080076
:10317000A870080058700800DFF8DC82FFF784BBF5
:1031800006230993BDE50320099C23A9CDE900048A
:10319000049120A81FA9CDE9021032462B460D98B4
:1031A00000F02CFA0E941190041939E700230993CA
:1031B000FEF73CBF099B0F9408930E930990CDF83E
:1031C0001C8012909DF87760FFF733B825AADDE9DF
:1031D0000C1002F09DFC00287EF497AFDDE9262458
:1031E000D1461F9BFFF7EEBB199A139B1344129A0B
:1031F0000E93002A06DC129B0E9AC3F101031A44B7
:1032000013460E9223EAE37308936727CFE5032062
:10321000099C23A9CDE90004049120A81FA9CDE9A8
:10322000021032462B460D9800F0E8F90E941190EA
:10323000EFE625AADDE90C1002F06AFC00287EF416
:1032400064AFD146279C2FE45D42103380F2D180D9
:10325000DFF80482234610260D9F444604E009F15E
:103260000809103D102D58DD01321033072ACDE931
:103270002623C9E90046F2DD25AA0C99384602F05A
:1032800047FC00287EF441AFDDE92623D146E8E77C
:103290000DF1930001466D4C00E01146A4FB03259F
:1032A000ED0805EB8502A3EB42023032092D01F84F
:1032B000012C2B4601F1FF32EFDC30330239DCB256
:1032C000884202F8014C40F297800DF186011346C6
:1032D00001E013F8014B984201F8014BF9D125ABFD
:1032E0009B1A0DF186021344CCE623EAE37208929E
:1032F0000E9367275BE5DFF8608107E6169A304694
:10330000179B294603F024FE00287FF48EAE0E9B07
:10331000C3F101031F931C4424E5A0461C4601325F
:103320002C44072ACDE92624C9E900853CDC09F1B3
:103330000809FFF74ABB18F0010312937FF4ABAE04
:103340000E9B23EAE373089331E5149B0321002BC2
:10335000B8BF2D234FF00000BABF1E468DF877305E
:103360009DF87760CDE90810394A3A4BFFF78FB9DD
:10337000129B199A1344099A1A4422EAE2730E9294
:10338000089314E56BB918F0010F0AD101230893D3
:103390000E930CE54A46DFF8C080F1E5DFF8B8800F
:1033A000FFE5199B0133E6E725AADDE90C1002F0E1
:1033B000AFFB00287EF4A9AEDDE92624D146FFF755
:1033C00004BB1F9A239B1292119A9B1A139338E6FF
:1033D0000E9B119A13441C46C4E40F9D9BF80130C8
:1033E0002C68834644EAE474281D09940F90FEF784
:1033F0001ABEDFF8648092E70DF1860342E6099B6E
:103400000E93FFE58DF87710FFF70FB94FF0FF32FD
:103410000C230A920D9A1360FEF780BE8DF8771088
:10342000FEF739BF8DF87710FEF70DBF8DF87710D6
:10343000FFF73AB98DF87710FFF7DBB88DF8771002
:10344000FFF770B98DF87710FFF792B8CDCCCCCCE0
:10345000747008007070080058700800F0B4174CC1
:103460002568D5F848410CB365681F2D23DC38B9B1
:1034700000206B1C0235636044F82510F0BC7047D7
:10348000012604EB850CCCF88820D4F8887106FA64
:1034900005F217430228C4F88871CCF80831E7D147
:1034A000D4F88C311A43C4F88C21E1E705F5A674F1
:1034B000C5F84841D8E74FF0FF30DFE74470080017
:1034C000024B13B10248FEF759BC704700000000E0
:1034D000891D0800000000002DE9F04F03690E6906
:1034E00083B0B342C0F28680013E01F1140800F1BE
:1034F000140958F8263059F826700133B7FBF3F752
:10350000B300009308EB030A4B440193002F3BD018
:103510000023C6461C46CC465EF8042BDCF800505F
:103520001FFA82FB07FB0B33120C4FEA134B07FB0E
:1035300002BB9AB2A21AABB21FFA8BF41A44C4EBC4
:10354000154404EB224492B242EA0442F2454CF89C
:10355000042B4FEA24444FEA1B43DDD2009B59F869
:1035600003308BB9019A131F99450CD252F8043CD1
:103570004BB9A2F1080302E01A68043B1AB9994555
:1035800006F1FF36F8D30661044601F0E9FE002893
:103590002CDB4D460023013758F8041B28688AB2FB
:1035A0009A1A0B0C81B20A44C3EB104303EB22437B
:1035B00092B242EA0342C24545F8042B4FEA234344
:1035C000EAD259F8262009EB86037AB91A1F9145E9
:1035D0000BD253F8042C42B9083B02E01A68043BB2
:1035E0001AB9994506F1FF36F8D32661384603B07B
:1035F000BDE8F08F002003B0BDE8F08F2DE9F04F5B
:103600001F461646036C99B00446CDE902674BB1DC
:103610000122456C1946AA40C3E9015201F05EFC43
:10362000002323643E1EB4BF01230023259AB8BFA4
:1036300026F000461360744BB8BF0396B34300F006
:10364000A380DDE90289002200234046494603F0B9
:103650007FFC074678B10123249A1360269B002B38
:1036600000F0BF80694B269A03F1FF39136048468A
:1036700019B0BDE8F08F16AA17ABCDE9003220468D
:1036800042464B4601F08AFF350D834640F09C8050
:10369000DDE91685454405F23243202B40F32F84A3
:1036A000C3F140039E40029B05F2124023FA00F052
:1036B000304303F06BF90122013D0A92A1F1F87148
:1036C0000022534B03F024F849A3D3E9002303F06D
:1036D000D7F949A3D3E9002303F01CF8064628468E
:1036E0000F4603F063F946A3D3E9002303F0C8F9BA
:1036F00002460B463046394603F00CF806460F46A4
:1037000003F06EFC0022059000233046394603F09A
:1037100029FC002840F07582059E162E00F25F827B
:10372000DDE902233B4901EBC601D1E9000103F0C9
:1037300037FC002800F0DF83731E059300230D93F0
:10374000A8EB0505B5F1010A00F1558200230693A7
:10375000059B002BC0F246829A440C9300230B93E6
:10376000229B092B5ED8052B40F3C7830026043B20
:103770002293229B023B032B00F29F84DFE813F08D
:10378000E403C603EE03FA0442F20F73249A1360B3
:10379000029B83B9C6F313066EB9269BDFF87890B7
:1037A000002B3FF464AF09F108034846269A1360E2
:1037B00019B0BDE8F08F269BDFF86090002B3FF436
:1037C00056AF09F10303F0E7C9F3130343F07F5148
:1037D0004046A5F2FF350A9741F44011DDF85880C4
:1037E0006EE7DFF83C90484619B0BDE8F08F00BFA7
:1037F00061436F63A787D23FB3C8608B288AC63FF7
:10380000FB799F501344D33F0000F07FA97008005C
:103810000000F83FE0700800AC700800B8700800C5
:10382000A87008004FF0FF3501260023CDE90856A7
:1038300022932393002114956164204601F028FB14
:103840000E2D8146206400F2FE80002E00F0FB80E9
:10385000DDE9022316461F460599CDE90E670029CA
:1038600040F3E9839B4B01F00F020D1103EBC20300
:10387000D3E90012CDE90212EA0640F1A084964B8A
:103880003946D3E90823304603F024FA0327CDE96B
:10389000100105F00F057DB1DDE902018E4EEB0749
:1038A00004D5D6E9002303F0EBF801376D1006F1DB
:1038B0000806F4D1CDE90201DDE90223DDE91001BA
:1038C00003F008FACDE902010D9B43B1DDE90201E5
:1038D0000022824B03F046FB002840F00985384661
:1038E00003F064F8DDE9022303F0CAF87C4B002200
:1038F00002F010FF089B0546A1F15076002B00F066
:103900001E84059B1593089B1093DDE9020103F0CB
:1039100067FB109A6F4B00F1300803EBC20353E9C9
:103920000212CDE9121203F041F80B460246DDE91E
:103930000201CDE9025602F0EBFE099B5FFA88F81E
:1039400006460F4609F10105002B00F06384DDE90E
:1039500012230020634903F0BDF9DDE9022302F0E0
:10396000D7FE89F8008032463B46CDE9020103F0DC
:1039700017FB002840F00E8532463B460020574991
:1039800002F0C6FE02460B46DDE9020103F008FB29
:10399000002840F00985109A012A50D04A44CDF8F9
:1039A00048A0CDF840B0A046DDE902ABCDF80890C4
:1039B00091460EE032463B460020484902F0A8FE00
:1039C00052465B4603F0CEFA002840F0E6844D45AF
:1039D0002ED0504659460022434B03F051F80022A6
:1039E000414B82468B463046394603F049F80F4634
:1039F000064603F0F5FA044602F0D8FF02460B46ED
:103A00003046394602F084FE3034E4B205F8014B0A
:103A100052465B4606460F4603F0A4FA0028C9D07A
:103A2000159BDDF840B0DDF808904446059339E277
:103A30004446DDF848A0DDF840B0DDF80890DDE947
:103A40000E23CDE90223179B002BC0F2A980059A13
:103A50000E2A00F3A5801F4B03EBC203D3E900231A
:103A6000CDE90623239B002BC0F2C182DDE902676A
:103A7000DDE906233046394603F02CF903F0B0FAAD
:103A8000804602F093FFDDE9062302F0F9FF0246CB
:103A90000B463046394602F03BFE089E08F13005E1
:103AA000012E89F8005002460B4609F101054CD061
:103AB00000220D4B02F0E4FF0022002306460F46D1
:103AC00003F046FA002840F0ED81CDF808B0DDE9BA
:103AD00006AB18E0E0700800D07108000000F03F6D
:103AE00000001C400000E03F000024400022C64BC4
:103AF00002F0C6FF0022002306460F4603F028FA14
:103B0000002840F0418352465B463046394603F078
:103B1000E1F803F065FA804602F048FF52465B4642
:103B200002F0AEFF02460B463046394602F0F0FD89
:103B300008F1300605F8016B089FA5EB0906B742AE
:103B400002460B46D2D1DDF808B01046194602F005
:103B5000E1FDDDE9062306460F4603F021FA60B9D0
:103B6000DDE906233046394603F0F2F9002800F07B
:103B7000998118F0010F00F0958115F8018C05E08E
:103B8000994500F03A831D4613F8018CB8F1390FBE
:103B900005F1FF33F4D008F1010883F8008081E1DA
:103BA000099A002A3DD0229A012A40F31282089BEA
:103BB00003F1FF380B9B4345C0F2E982A3EB0808F1
:103BC000089B002BC0F20E83069A9A440A921A446C
:103BD00006920121204601F069FA064626E00123FB
:103BE0000D93ADE500230C93DDE90532D21A5B425B
:103BF00006920B93B4E5C5F1010306934FF0000A5A
:103C0000A6E5DDF81490484602F0D0FE32463B4669
:103C100003F09EF900287FF47FAD09F1FF3305938F
:103C20007AE5069BDDF82C80099E0A930A99002903
:103C30000B460CDDBAF1000F09DD5145A8BF534614
:103C4000069AAAEB030AD21A0692CA1A0A920B9B88
:103C50007BB1099A002A00F09082A3EB0807B8F123
:103C6000000F40F09A8159463A46204601F0CEFABC
:103C700083460121204601F019FA0C9A0746002AD2
:103C800040F02581229B012B40F36B8101205044A1
:103C900010F01F0000F01981C0F12003042B40F345
:103CA000B483C0F11C00069B8244034406930A9B24
:103CB00003440A93069B002B05DD59461A4620460D
:103CC00001F0F4FA8346BAF1000F05DD3946524699
:103CD000204601F0EBFA07460D9B002B77D1089B9D
:103CE000002B40F30582099B002B00F089800A9B82
:103CF000002B00F367810C9B002B40F0CA81B24679
:103D0000C846029B089A03F001030A9309F1FF33A6
:103D10001A440692CDF82C9039465846FFF7DCFB42
:103D2000314681460990584601F01AFB52460290EE
:103D30003946204601F030FBC268054609F13009DA
:103D40000146002A40F0CF81584601F009FB294680
:103D50000890204601F0C2F8089A32B9229B23B994
:103D60000A9B002B00F02483229A029B002BC0F2B6
:103D7000198205D1229B1BB90A9B002B00F01282ED
:103D8000002A08F1010500F32182069B88F80090C3
:103D9000434500F02C82594600230A22204601F0B8
:103DA000A7F85645834631464FF000034FF00A020C
:103DB000204600F0928101F09BF851460646002310
:103DC0000A22204601F094F8A8468246A4E7394624
:103DD000584601F0C5FA002881DA059D59460023AE
:103DE0000A222046013D059501F082F8099B834691
:103DF000002B40F0EE82149B002B40F3F9820893D5
:103E00004D46DDF8208008E000002440594600239C
:103E10000A22204601F06CF8834639465846FFF7DF
:103E20005BFB303005F8010BA5EB09029045EDDC9A
:103E3000002203460292594601222046089301F0CF
:103E400035FA3946834601F08BFA002815F8012C23
:103E5000089B11DC05D1DB070ED402E015F8022C1B
:103E60001D46302A05F1FF33F8D00BE0994500F0EC
:103E70004C811D4613F8012C392A05F1FF33F5D08A
:103E800001321A703946204601F028F856B10299DD
:103E900021B1B14202D0204601F020F8314620463F
:103EA00001F01CF85946204601F018F80022059B45
:103EB0002A70249A01331360269B002B3FF4D7AB62
:103EC00048461D6019B0BDE8F08F1C20EBE60146A6
:103ED000204601F09BF9229B0746012B40F3D4803A
:103EE00000230C933B6907EB8303186901F08EF8FC
:103EF000C0F12000CBE60D9022E4012639E4C3F1A5
:103F00002006029B03FA06F0FFF7D3BB00230993B8
:103F1000059B239A134414930133012B1F46B8BF0A
:103F2000012708930021172F089D61647FF785AC56
:103F3000012204235B0003F11400B842114602F190
:103F40000102F7D9616478E400230993239B002BD5
:103F500040F3E280149308931F46E3E7012309939B
:103F6000F4E7029B002B7FF491AEDDE90212C2F36D
:103F70001303002B40F0998122F000431B0D1B0519
:103F80002BB1069B0AF1010A0133069301230C9A17
:103F90000C93002A3FF47AAEA4E74246314620460D
:103FA00001F034F95A4601460646204601F088F8E9
:103FB00080465946204600F091FFC346002F3FF44B
:103FC00058AE50E631461A46204601F06FF90646D3
:103FD00091E60A9A002A00F05D81069A03F23343C3
:103FE0000A921A449A440692DDF82C80F1E5089B67
:103FF000002B3FF73BAD40F0F881DDE906010022E0
:10400000B54B02F03DFDDDE9022302F0BFFF089F42
:104010003E46002874D13123059A89F800300132D8
:10402000059209F101053946204600F057FF002EA0
:104030007FF434AF36E700F04881DDE90E01059BDF
:104040005D42A64B05F00F0203EBC203D3E9002348
:1040500002F016FD2D11CDE9020100F0CE81002302
:1040600002279F4EEA0705D5D6E9002302F008FD96
:1040700001231F446D1006F10806F3D1002B3FF415
:1040800023ACCDE902011FE4029B002B3FF46DAF8E
:1040900026E77168204600F0FBFE0546336906F10D
:1040A0000C0102339A000C3000F016FE2946012262
:1040B000204601F0FBF8824622E600252046656492
:1040C000294600F0E5FE4FF0FF33149308930123D7
:1040D0008146239520640993B5E400F009FFA846C2
:1040E0000646824618E6204600F0F8FE01223CE62D
:1040F000229B022B7FF7F7AD089B002B00F0D780A7
:10410000239B4D46DB4305938DE73123059A89F8C0
:10411000003001320592B5E6012523950895FFF799
:1041200089BB384602F042FCDDE9022302F0A8FC1C
:1041300000226C4B02F0EEFA0546A1F15076DDE963
:1041400002010022644B02F0E3FA2A463346CDE92D
:10415000020102F025FF0746002858D1DDE90201DF
:104160002A4606F1004302F0FDFE00283FF467AC4A
:104170003E46C5E701230993CAE659460B9A2046F5
:1041800001F044F8834674E5DDF808B08AE60B9B3D
:104190000C9AA8EB03031A44CDF82C800C924FF034
:1041A00000080DE5002A4B4608F10105DDF82C90CA
:1041B00000F3C580029688F80030564662E6DDE9D5
:1041C0000E230227CDE91023FFF765BB4B46392BA1
:1041D000DDF82C9000F0C5800133029688F800309D
:1041E00056464FE6069B089A9B1A0A93F1E44B4603
:1041F0000296DDF82C9056461DE6302389F80030F3
:10420000059B15F8018C013305934B46C3E4002749
:104210003E4600E7DDE91223DDE9020102F030FC51
:10422000109BCDE90201012B89F8008021D0109B61
:10423000CDF840A04B449A4600222B4B30463946DD
:1042400002F01EFC0F46064602F0CAFE804602F04F
:10425000ADFB02460B463046394602F059FA08F1EA
:10426000300805F8018B554506460F46E4D1DDF8C8
:1042700040A00022DDE902011C4B02F04BFA32465D
:104280003B4602F06FFE002871D0159B059315F890
:10429000018C7BE4169B069AC3F136030A921A44FA
:1042A0009A440692DDF82C8093E400236FE63946A9
:1042B0000522204600F01CFE01460746584601F044
:1042C0004FF800283FF7A7AE1AE7DDE90E230227D3
:1042D000CDE90223FFF7F8BA00001440E0700800AF
:1042E000D071080000001C40000024400000E03FA6
:1042F000089B002B3FF415AF149B002B7FF79FAB5F
:10430000DDE902010022454B02F0BAFB05460E46EC
:10431000781CCDE9025602F049FB2A46334602F0EA
:10432000AFFB00223E4B02F0F5F9059A149B013ACF
:1043300005461592A1F150761093FFF7E6BA59465B
:1043400001222046029300F0B1FF3946834601F076
:1043500007F80028029B36DD392B02D0099B313348
:1043600028E73922029688F80020564684E5DDE9E0
:10437000022300202B4902F0CBF932463B4602F0E3
:104380000FFE10B9FFF75BBB154615F8013C6A1E1E
:10439000302BF9D0159B059384E54346A0461C4677
:1043A000DDF840B0DDF80890159B0593FFF7EEBBF4
:1043B0004B46392BDDF82C9008F10105D1D0029A3B
:1043C000002ACBDCF6E67FF4F5AEDA077FF5F2AE35
:1043D000C2E7314600230A22204600F089FD149BE3
:1043E0000646002B0CDD089381E400273E4687E655
:1043F000229B022B0EDC149B01E50227FFF764BA17
:10440000229B022B06DC149BEDE73FF453ACC0F17A
:104410003C0048E4149B08936EE600BF0000244073
:1044200000001C400000E03FF8B50C46234F064654
:1044300000F02AFDBB68C4F57E615D680F3125F090
:104440000305294421F47F6121F00F01A1F5805477
:10445000B4F5805F07DB0021304601F047FBBB6805
:104460002B44984204D0304600F010FD0020F8BDE7
:104470006142304601F03AFB01300DD0104BBA6872
:1044800019682D1B45F001053046091B5560196060
:1044900000F0FCFC0120F8BD0021304601F026FBB5
:1044A000BA68831A0F2BDEDD064943F001030C685E
:1044B0000349001B53600860D5E700BF640707206D
:1044C000A40B07206C0B0720002953D0F8B50D462C
:1044D000064600F0D9FC55F804CC714FA5F108014F
:1044E0002CF00103CA18B8685468904224F0030401
:1044F00053D01CF0010F546002EB04003BD155F87F
:1045000008CC4068A1EB0C018D6807F1080E7545D9
:10451000634400F0010075D0D1F80CC0C5F80CC0A0
:10452000CCF8085060B343F001024A60CB50B3F5B9
:10453000007F50D35A0A042A70D89A0902F139052B
:10454000ED0002F138007C197A59083C944278D089
:10455000506820F00300984271D992689442F7D1D4
:10456000E368C1E9024330469960E160BDE8F84084
:1045700000F08CBC7047406800F001000028D2D1E8
:104580009068484D2344A84243F0010462D0D268A9
:10459000C26090604C60CB50C9E71CF0010F23440F
:1045A00007D155F8084C091BD1E902022344C26027
:1045B00090603D4A43F00100126848609A42B96039
:1045C00004D83A4B30461968FFF72EFF3046BDE855
:1045D000F84000F05BBC0122DB087C6898101344B3
:1045E0008240224307EBC30057F833400838C1E943
:1045F00002407A60304647F83310E160BDE8F84089
:1046000000F044BC002845D1D2E90202234443F023
:104610000104C26090604C60CB50D7E7142A08D9DF
:10462000542A1ED81A0B02F16F05ED0002F16E003C
:1046300089E702F15C05ED0002F15B0083E71446B7
:104640008EE701238210786803FA02F202437A604F
:10465000234686E7C7E90411C1E902004C60CB504C
:10466000B4E7B2F5AA7F06D8DA0B02F17805ED00BF
:1046700002F1770067E740F25450824206D89A0C64
:1046800002F17D05ED0002F17C005CE74FF47E75E0
:104690007E2058E743F001004860136096E700BFB2
:1046A000640707206C070720700B0720A00B07206A
:1046B000F030704700487047E80607200048704710
:1046C000E80607202DE9F04F01F10B05162D83B008
:1046D000064623D8102900F2B68000F0D5FB10253D
:1046E00018230220D14F3B445C68A3F10802944296
:1046F00000F05F816368E16823F0030323445A6894
:10470000A56842F00102E96030468D605A6000F011
:10471000BDFB0834204603B0BDE8F08F35F0070537
:1047200000F19180A94200F28E8000F0ADFBB5F55A
:10473000FC7FC0F06D816B0A00F08C80042B00F2CE
:104740003F81AB0903F1390003F1380CC100B74FC9
:1047500039444C680839A14206D10CE0002A80F2A5
:104760002481E468A14206D0636823F003035A1B46
:104770000F2AF3DD60463C69DFF8B4C264456FD0B0
:10478000636823F003035A1B0F2A00F32F81002ACA
:10479000C7E904CC80F22081B3F5007F80F05B8113
:1047A0000122DB08991013448A40796857F833E0F6
:1047B00007EBC3080A43A8F10801C4E902E17A60E3
:1047C00047F83340CEF80C40012483109C409442BB
:1047D0004CD8144206D120F003006400144200F1CA
:1047E0000400FAD007EBC009CE468046DEF80C3054
:1047F0009E4507D110E1002A80F21E81DB689E45AC
:1048000000F00A81596821F003014A1B0F2AF2DDEA
:1048100045F001083046D3E902E41D4442F00106A8
:10482000C3F80480CEF80C40C4F808E0C7E904558A
:10483000C5E902CC6E605A50009300F027FB009B44
:1048400003F1080466E700240C232046336003B01C
:10485000BDE8F08F4FF4007140204FF03F0C76E739
:1048600001247A6883109C409442B2D9BC68636882
:1048700023F00309A94504D3A9EB05030F2B00F38B
:104880008480DFF8B0A1D7F80824DAF800300132CC
:1048900005EB030800F03B8108F5805808F10F088C
:1048A00028F47F6828F00F084146304601F01EF9D1
:1048B000B0F1FF3F834600F0F78004EB0900584554
:1048C00000F2F080DAF8042008EB0201CAF80410C4
:1048D00000F04E81D7F8083401331BBFABEB000268
:1048E0005218C7F808B4CAF804201BF0070300F0F8
:1048F0002481C3F108029344C3F58052D84408329E
:10490000A2EB0802C2F30B0211463046019300925B
:1049100001F0ECF8421CDDE9002300F05A81DAF8DE
:104920000410A0EB0B03134443F001031144BC42F9
:10493000C7F808B0CAF80410CBF8043014D0B9F1A5
:104940000F0F40F22C814FF0050C6368A9F10C02A7
:1049500022F0070203F001031343A0180F2A63603B
:10496000C0E901CC00F23A81DAF82C30BC689942F7
:10497000DAF83030626888BFCAF82C10994222F009
:10498000030288BFCAF8301092E045F0010243F0FC
:104990000103254462603046BD6008346B6000F05E
:1049A00075FA204603B0BDE8F08F23445A68E168E9
:1049B000A6E6DC68A34208BF02303FF4DCAE99E60D
:1049C000142B69D9542B00F2A5802B0B03F16F0037
:1049D00003F16E0CC100BAE623445A68304642F037
:1049E00001025A60083400F051FA93E645F0010ED6
:1049F00042F001012544C4F804E03046C7E90455FB
:104A0000C5E902CC6960E25000F040FA083481E662
:104A1000E80805F1080365E608F1010818F0030F3E
:104A20000EF1080E7FF4E2AE59E000BF64070720E4
:104A30006C070720A00B07201C4619444A68DB6856
:104A400054F8085F42F001024A603046EB609D6016
:104A500000F01CFA5EE65A0A042A35D9142A7FD8D7
:104A600002F15C01C9005B3207EB010E7958AEF12F
:104A7000080E8E4558D04A6822F003029A4202D9A5
:104A800089688E45F7D1D1F80CE07A68C4E9021E36
:104A9000CEF80840CC6097E603F15C0003F15B0CB4
:104AA000C10054E6BC427ED0BC68626822F00302BA
:104AB0009542A2EB050302D80F2B3FF766AF3046B5
:104AC00000F0E4F9002425E69A0902F13901C90051
:104AD0003832C9E7D9F80090994540F0958010F038
:104AE000030FA9F1080300F1FF30F3D17B6823EA3B
:104AF00004037B6064009C423FF6B8AE1CB9B5E687
:104B0000640008F104081C42FAD040466AE608F145
:104B10001008C9E6B3F5AA7F36D8EB0B03F178008D
:104B200003F1770CC10012E64FF001087B68921088
:104B300008FA02F21A437A60A8E7D844C8F10002E2
:104B4000C2F30B02114630460193009200F0CEFFF3
:104B5000431CDDE900237FF4E2AE40461A46DEE660
:104B6000542A27D81A0B02F16F01C9006E327BE775
:104B7000C0F30B03002B7FF4ADAE09EB0803BA685A
:104B800043F001035360EFE640F2545293421AD8C7
:104B9000AB0C03F17D0003F17C0CC100D7E50123D0
:104BA000CBF804308BE7DAF8042008EB0201CAF8EE
:104BB00004108FE6B2F5AA7F18D8DA0B02F178015B
:104BC000C900773250E74FF47E717F204FF07E0CA2
:104BD000BDE5083B002208EB0300A0E604F1080154
:104BE0003046FFF771FCDAF80410BDE640F254518C
:104BF0008A4205D89A0C02F17D01C9007C3233E764
:104C00004FF47E717E222FE77B6873E710B4034C6C
:104C1000D4F8E440A44610BC604700BFF805072064
:104C200082B049B15AB16BB113780B601278101C85
:104C300018BF012002B0704701A9002AF3D1104625
:104C400002B070476FF00100F4E700BF830770B453
:104C5000CDB23DD0541E0AB30378AB421FD0431CE3
:104C600005E014F1FF3419D30278AA4217D013F0EB
:104C7000030F184603F10103F3D1032C11D84CB3F1
:104C80000378AB420BD00444431C02E00278AA42F2
:104C900005D09C42184603F10103F7D1002070BCF7
:104CA000704706460A0292B22A4342EA0242336839
:104CB00030465340A3F1013121EA030313F0803F52
:104CC00006F10406DCD1043C032C3046EFD8D6E7CD
:104CD0001446D2E72046E2E7844641EA000313F097
:104CE000030349D1403A23D30B6803604B68436008
:104CF0008B688360CB68C3600B6903614B69436158
:104D00008B698361CB69C3610B6A03624B6A43623F
:104D10008B6A8362CB6AC3620B6B03634B6B436327
:104D20008B6B8363CB6BC36340304031403ADBD243
:104D300030320BD30B6803604B6843608B68836031
:104D4000CB68C36010301031103AF3D20C3205D367
:104D500051F8043B40F8043B043AF9D2043208D03D
:104D6000D2071CBF11F8013B00F8013B01D30B88AF
:104D700003806046704700BF082A13D38B07B1D069
:104D800010F00303AED0C3F10403D21ADB071CBF3B
:104D900011F8013B00F8013BA4D331F8023B20F8A5
:104DA000023B9FE7043AD9D3013A11F8013B00F8DE
:104DB000013BF9D20B7803704B7843708B7883708A
:104DC000604670478842F0B40DD98B1883420AD9E7
:104DD000841832B1224613F8014D994202F8014D70
:104DE000F9D1F0BC70470F2A48D940EA01039B076C
:104DF00046D1A2F110031B0901F1200707EB0317AD
:104E000001F1100400F1100554F8106C103445F84D
:104E1000106C54F81C6C103545F81C6C54F8186C68
:104E200045F8186C54F8146CBC4245F8146CEBD17E
:104E3000013302F00F051B01032D1944034421D94E
:104E40000F462C461E1F57F804CB043C032C46F893
:104E500004CFF8D82C1F24F0030404342344214445
:104E600002F00302002ABCD0013B0A4411F8014BB6
:104E7000914203F8014FF9D1F0BC70470346F1E7C6
:104E80000346F1E72A46EDE7704700BF704700BFD1
:104E9000C36C70B505460C464BB153F8240080B185
:104EA000026843F824200023C0E9033370BD2122A7
:104EB000042101F0F3FB0346E8640028EDD1002053
:104EC00070BD012101FA04F6721D2846920001F01E
:104ED000E5FB0028F3D0C0E90146E4E731B1C36C3B
:104EE0004A6853F82200086043F82210704700BF58
:104EF000F0B54FF0000C0C4605460E6983B001F189
:104F0000140738680CF1010C81B202FB0133010C6B
:104F1000180C02FB01019BB203EB0143664547F805
:104F2000043B4FEA1143ECDC3BB1A268B24207DD1F
:104F300004EB8602013653612661204603B0F0BDC2
:104F40006168284601310193FFF7A2FF07462269F5
:104F500004F10C01023292000C30FFF7BDFEEA6C46
:104F60006168019B52F82100206042F821403C46D4
:104F7000DEE700BF2DE9F843234C1E46083384FBCF
:104F8000034CDB17C3EB6C0CBCF1010F07460C465E
:104F90009046089D35DD012300215B009C4501F111
:104FA0000101FADC3846FFF773FF0123B8F1090F5E
:104FB000C0E9043521DD04F109094D46444415F8E2
:104FC000013B0146303B0A223846FFF791FFAC42D5
:104FD000F5D109EB0804083C46450CDDA6EB0806B4
:104FE000264414F8013B0146303B0A223846FFF7BD
:104FF0007FFFA642F5D1BDE8F8834FF009080A34D7
:10500000EAE70021CEE700BF398EE338020C120434
:105010000346C2B90304102013F07F4F04BF1B02E4
:10502000083013F0704F04BF1B01043013F0404FE1
:1050300004BF9B000230002B04DB5B0001D5013074
:105040007047202070470020E6E700BF0368014654
:1050500013F0070207D0DA071FD498071FD55B08A3
:105060000B600120704798B2A0B1104613F0FF0FFB
:1050700004BF1B0A08301A0704BF1B0904309A0733
:1050800004BF9B080230DA0702D45B080BD0013062
:105090000B6070471B0C1020E8E7002070479B084E
:1050A0000B60022070472020704700BF10B50C46EF
:1050B0000121FFF7EDFE0122C0E9042410BD00BF6D
:1050C0002DE9F04F0D69146985B0A5420E46914651
:1050D00004DA2A464E46254689461446B36805EB4F
:1050E000040871684345B8BF0131FFF7D1FE00F1F4
:1050F000140B0BEB880AD345019005D25B460022C6
:1051000043F8042B9A45FBD809F1140303EB8404FC
:1051100006F11402A34202EB850E62D2A4EB09044D
:10512000153C24F003042344CDE902A809F1100939
:1051300090469A4605E0090C2CD1CA450BF1040BA8
:105140004DD059F8041F1FFA81FCBCF1000FF2D0BA
:1051500047465E46002100E00646304657F8042BDD
:10516000346893B2A5B2120C0CFB0353240C0CFB55
:1051700002420B4402EB13419BB243EA0143BE459A
:105180004FEA114140F8043BE6D87160D9F80010AD
:10519000090CD2D0DBF8003040461E465D460022A6
:1051A00000E025462C460788360C01FB07669BB2BB
:1051B000324443EA024344F8043B50F8043B6E682F
:1051C0001B0CB7B201FB0373864503EB12434FEA96
:1051D0001342E6D8CA456B600BF1040BB1D1DDE98F
:1051E00002A8B8F1000F0BDD5AF8043CAAF1040A3A
:1051F0001BB105E05AF8043D13B9B8F10108F9D123
:105200000198C0F8108005B0BDE8F08F12F00303DC
:105210002DE9F041144607462ED10D46A4101CD0AE
:10522000BE6C96B3E3074FF0000806D4641014D0A8
:105230003068A8B10646E307F8D532462946384615
:10524000FFF73EFFB5B16A68FB6C641053F822109B
:10525000296043F822500546EAD12846BDE8F0818E
:10526000324631463846FFF72BFF3060C0F80080E9
:105270000646E0E70546D9E70B4A013B52F82320F2
:105280000023FFF735FE0546C8E701213846FFF742
:10529000FFFD40F2712101220023C0E904210646EE
:1052A000B8640360BEE700BFD07008000B692DE949
:1052B000F047541104EB03088B6808F101059D4287
:1052C0000E4691460746496804DD5B009D4201F1A8
:1052D0000101FADC3846FFF7DBFD002C00F1140376
:1052E0003CDD002203EB840143F8042B8B42FBD10D
:1052F000346906F1140319F01F0903EB840C25D05F
:10530000C9F120024FF0000A00E071468E461C6889
:1053100004FA09F444EA0A044EF8044B53F8044B27
:10532000634524FA02FAF0D3C1F804A0BAF1000FE1
:1053300001D008F10205FB6C7268013D53F82210A0
:105340000561316043F82260BDE8F087043953F805
:10535000042B9C4541F8042FF9D8ECE71946C7E720
:1053600030B40B6905460069C01A0FD19B00143593
:10537000143119442B4401E09D4207D253F8044DE7
:1053800051F8042D9442F7D002D3012030BC70476D
:105390004FF0FF30FAE700BF2DE9F84F0C691369B1
:1053A0008946E41A002C924601F1140702F1140B0D
:1053B00014D19B00FA185B4401E0BA4262D952F85A
:1053C000045D53F8041D8D42F7D009D23A464B468E
:1053D0005F46D14693469A46012401E0F6DB00245D
:1053E000D9F80410FFF754FD5E464FF00008D9F8D5
:1053F00010C0DAF810303D46C4600BEB830E07EBAB
:105400008C0700F1140455F8049B56F8042B1FFA7E
:1054100089F343441FFA82F8120CA3EB0803C2EB92
:10542000194202EB23429BB243EA0243B64544F8D9
:10543000043B4FEA2248E6D8AF4217D9A6462E468B
:1054400056F8043B99B241440A1402EB134289B264
:1054500041EA0243B7424EF8043B4FEA2248EFD8F4
:10546000ED432F4427F0030704373C44043C2BB999
:1054700054F8043D0CF1FF3C002BF9D0C0F810C0EB
:10548000BDE8F88F0021FFF703FD01220023C0E9EA
:105490000423BDE8F88F00BF0F4B0B40A3F15073FE
:1054A000002B02DD0020194670475B421B15132BB1
:1054B0000BDD143B1E2BD7BF01220123C3F11F03B9
:1054C00002FA03F30021184670474FF4002200202F
:1054D00042FA03F1704700BF0000F07F2DE9F04170
:1054E000076900F1140606EB870757F8048C40465D
:1054F000FFF78CFDC0F120030A280B60A7F104021E
:1055000018DC96422CBF002257F8082CC0F10B0380
:1055100028FA03F138BFDA4000F1150341F07F5556
:1055200008FA03F345F4401543EA020420462946ED
:10553000BDE8F0819642A0F10B031DD257F8080C8C
:10554000E3B108FA03F848F07F58C3F12001A7F14E
:10555000080220FA01FC48F44018964200FA03F0D1
:1055600048EA0C0503D257F80C3CCB4018430446DC
:1055700020462946BDE8F08133B9184648F07F55EA
:1055800045F440150446F3E7002008FA03F343F01E
:105590007F5545F440150446EAE700BF2DE9F04188
:1055A0001C4682B00121DDE908659046FFF770FCDA
:1055B0002346C4F30A540746C3F313030CB143F460
:1055C0008013B8F1000201931ED002A840F8082D04
:1055D000FFF73CFD70BBDDE900237A61002B0CBFB7
:1055E00001210221BB613961CCB907EB8103A0F233
:1055F000324030601869FFF709FDC0EB41102860A8
:10560000384602B0BDE8F08101A8FFF71FFD012276
:10561000019B11462030C7E90423002CE5D0A4F2F9
:1056200033430344C0F1350033602860384602B08C
:10563000BDE8F081019BC0F12002009903FA02F25B
:105640000A43C34001937A61C8E700BF2DE9F043E4
:1056500083B00F4669460646FFF740FF04460D46F5
:10566000384601A9FFF73AFF36693A698946DDE90C
:105670000013B61ACB1A03EB4613002B80460BDD42
:1056800005EB03573D4642464B462046294601F06E
:1056900021FB03B0BDE8F083C3EB033309EB0351F7
:1056A0008946F0E71728D0B504460ADD0020002619
:1056B0000749084F32463B4601F0E2F9013CF9D177
:1056C000D0BD054B03EBC004D4E90401D0BD00BF3D
:1056D0000000F03F00002440D070080070B414694E
:1056E0004D1E02F1140303EB84016D1101358B4251
:1056F00000EB85040CD2051F53F8046B994245F862
:10570000046FF9D88B1A153B23F0030304331844B4
:10571000844204D9002340F8043B8442FBD870BC87
:10572000704700BF036910B44C11A34200F114028A
:105730000FDA02EB83039A421CD253F8040C043BA9
:1057400018B114E053F8041D89B99A42FAD310BC79
:10575000704702EB8403EEDD11F01F01EBD052F82D
:10576000244024FA01F000FA01F18C42E3D0012038
:1057700010BC70470020EAE72DE9F04F924683B055
:10578000002900F0A1800D4680460AF10B04FFF7C6
:105790007BFB55F8042C162C22F00306A5F1080714
:1057A0003ED810242146A2453FD88E4207EB060979
:1057B00074DAC84B9868484500F0AA80D9F804000C
:1057C00020F001034B445B68DB0740F18380D20784
:1057D00034D551464046FEF775FF8246E0B155F894
:1057E000043CA0F1080223F001033B44934200F083
:1057F0000E81321F242A00F21481132A296800F234
:10580000FB8003462A4619605168596092689A6085
:1058100029464046FEF758FE4046FFF737FB4FE06B
:1058200024F00704002C2146BDDA4FF0000A0C23B7
:105830005046C8F8003003B0BDE8F08F55F8083C7A
:10584000A7EB030BDBF8042022F00302B3188B4212
:10585000BFDBDA46DBF80C105AF8080F321F242A97
:10586000C1600BEB0309886000F2BE80132A29682F
:1058700040F2D580CBF8081069681B2ACBF80C10D1
:10588000A96800F2E5800BF1100208351160696823
:105890001E465160AB685F46554693607A68331B7D
:1058A0000F2B02F0010222D832437A60D9F804307B
:1058B00043F00103C9F804304046FFF7E7FAAA466F
:1058C000504603B0BDE8F08F114603B0BDE8F04F7D
:1058D000FEF7F8BE20F0030033188B4263DBD9E9F2
:1058E00002121E46CA6007EB03099160D6E7391918
:1058F000224343F001037A604B60D9F80430083149
:1059000043F00103C9F804304046FEF7DDFDD3E75C
:10591000D0F8049004F1100029F00309B144814546
:1059200080F28380D2073FF554AF55F8082CA7EBDF
:10593000020BDBF8042022F003029144484585DC89
:10594000DA46DBF80C105AF8080F321F242AC1601F
:10595000886000F2AB80132A296840F2A580CBF85A
:10596000081069681B2ACBF80C10A96800F2A58002
:105970000BF110020835116069685160A9689160E7
:10598000A9EB04020BEB040142F0010299604A60AA
:10599000DBF80430404603F001031C43CBF804401D
:1059A000FFF774FA8CE7D3073FF513AF55F8083CBF
:1059B000A7EB030BDBF8042022F003021044831949
:1059C0008B42FFF643AFD9E90201DA46C160886035
:1059D0005AF8080FDBF80C10321F242AC1600BEBB9
:1059E000030988607FF642AF294650461E465F464F
:1059F000FFF7E8F9554651E701606B681B2A4360E1
:105A000032D805F1080200F10803A968FBE650F856
:105A1000043C23F003031E4407EB06093EE752460D
:105A200034E72946FFF7CEF9F2E6A9EB040927444B
:105A300049F001029F607A6055F8043C404603F04B
:105A400001031C4345F8044CFFF720FAAA4637E748
:105A5000CBF81010E968242ACBF8141029690FD06C
:105A60000BF11802103511E7AB68242A8360EB684C
:105A7000C3600FD005F1100200F110032969C2E6DE
:105A8000CBF8181069690BF12002CBF81C10A9693A
:105A90001835FBE62B6905F118020361696900F10D
:105AA00018034161A969AEE6524664E729465046AB
:105AB0000193FFF787F9019B62E7CBF81010E968C3
:105AC000242ACBF81410296906D00BF118021035DE
:105AD00051E700BF64070720CBF8181069690BF184
