:0200000280007C
:10000000B02E0720B5240800AD240800AD24080058
:10001000AD240800AD240800AD2408000000000055
:10002000000000000000000000000000AD240800F7
:10003000AD24080000000000AD2408009102080073
:10004000AD240800AD240800AD240800AD2408004C
:10005000AD240800AD240800AD240800AD2408003C
:100060007D1F0800AD24080000000000AD2408003A
:10007000AD240800AD240800AD24080000000000F5
:1000800000000000AD240800AD240800AD240800E5
:10009000AD240800AD240800AD240800AD240800FC
:1000A000AD24080000000000AD240800510C080039
:1000B000AD240800AD240800AD240800AD240800DC
:1000C000AD240800AD240800AD240800AD240800CC
:1000D000AD240800AD240800AD240800AD240800BC
:1000E000AD240800AD240800AD240800AD240800AC
:1000F000AD2408000348044B834202D0034B03B1F4
:10010000184770477CA408007CA408000000000089
:1001100005480649091A891001EBD171491002D02E
:10012000034B03B1184770477CA408007CA4080067
:100130000000000010B5064C237843B9FFF7DAFF42
:10014000044B13B10448AFF300800123237010BDAA
:10015000A40D0720000000007CA4080008B5044B93
:100160001BB104490448AFF30080BDE80840CFE765
:1001700000000000A80D07207CA4080080B483B014
:1001800000AF03463960FB7197F90730002B0BDA9B
:100190003B68DAB20C49FB7903F00F03043B120110
:1001A000D2B20B441A7609E03B68DAB2074997F9F4
:1001B00007301201D2B20B4483F8002300BF0C3782
:1001C000BD4680BC704700BF00ED00E000E100E0EC
:1001D00090B587B000AF786000237B614FF00003DB
:1001E0004FF00004C7E902341F4B1B68DB084FF0D7
:1001F0000004C7E902347B684FF00004FA6803FB8F
:1002000002F1BA6804FB02F20A44B968A1FB0334A4
:1002100022441446C7E90234C7E90234D7E902018F
:10022000124A4FF0000304F0FDFF03460C467B61C9
:100230007B69013BB3F1807F01D301230FE00C4ABE
:100240007B69013B53600F214FF0FF30FFF796FFB2
:10025000074B00229A60064B02221A6000231846C0
:100260001C37BD4690BD00BFF003072040420F0081
:1002700010E000E080B400AF044B1B68034A43F079
:100280000103136000BFBD4680BC704710E000E072
:1002900080B582B000AF00237B60274B1B68013321
:1002A000254A1360254B1B68002B0DD0234B1B6880
:1002B000DB7C002B08D0214B1B689B6998471F4BA8
:1002C0001B681D4A12681A601D4B1B781A461D4B8D
:1002D00053F82230DB7C002B10D0194B1B781A46C8
:1002E000184B53F822309B699847154B1B781A46D8
:1002F000144B53F82230104A12681A60104B1B78C6
:100300000133DAB20E4B1A700D4B1B781A460D4BA7
:1003100053F82230002B02D1094B00221A700A4BED
:100320005B687B607B6803F08063002B00D0FEE796
:1003300000BF0837BD4680BDC00D07208C030720D5
:10034000C40D0720680E072000ED00E080B483B0E4
:1003500000AF78607B68072B25D801A252F823F004
:1003600081030800870308008D0308009303080039
:10037000970308009B0308009F030800A3030800DD
:100380004FF4FA4310E04FF400430DE04FF4004304
:100390000AE0084B08E0084B06E0084B04E0074B76
:1003A00002E0064B00E0002318460C37BD4680BC37
:1003B000704700BF00093D0000127A00001BB70023
:1003C00080B500AF0620FFF7C1FF02461346DB00F1
:1003D0009B1A5B00184680BD80B500AFFFF7F0FFA9
:1003E00003465B08184680BD80B582B000AF7860D8
:1003F000786802F07DFB00BF0837BD4680BD80B540
:1004000000AF0B20FFF7F0FF0C20FFF7EDFF0D20F2
:10041000FFF7EAFF0E20FFF7E7FF00BF80BD80B4C3
:100420008DB000AF78600B46FB707B68FB62FB7899
:1004300087F82B30FB6A7B627B6A3B623B6A5B0915
:10044000FB61FB6903F5001303F207735B02BB61F9
:1004500097F82B30012B09D1FB6A7B617B6903F094
:100460001F0301229A40BB691A610CE097F82B30F8
:10047000002B08D1FB6A3B613B6903F01F0301229B
:100480009A40BB695A61FB6AFB60FB6803F01F037B
:1004900001229A40BB69C3F8A02000BF3437BD4693
:1004A00080BC704780B48BB000AF78600B46FB70A7
:1004B0007B687B62FB7887F823307B6AFB61FB6992
:1004C000BB61BB695B097B617B6903F5001303F2C8
:1004D00007735B023B6197F82330002B09D07B6ADE
:1004E000FB60FB6803F01F0301229A403B691A631B
:1004F00008E07B6ABB60BB6803F01F0301229A40DF
:100500003B695A6300BF2C37BD4680BC704780B43E
:1005100089B000AF78607B68FB61FB69BB61BB6938
:100520007B617B695B093B613B6903F5001303F267
:1005300007735B02DA6BFB69FB60FB6803F01F0368
:10054000012101FA03F31340002B14BF0123002300
:10055000DBB218462437BD4680BC7047000000005F
:100560002DE9904882B000AF00214D20FFF757FFE2
:1005700000214F20FFF753FF00215120FFF74FFFCD
:1005800000215320FFF74BFF00214C20FFF78AFF8B
:1005900001214E20FFF786FFFFF71EFF03464FF0B5
:1005A000000445A2D2E9001213EB010B44EB020C4C
:1005B00058466146424A4FF0000304F033FE0346BA
:1005C0000C46184609F04CFF01215020FFF76AFF46
:1005D000FFF702FF03464FF0000437A2D2E90012F2
:1005E00013EB010B44EB020C58466146344A4FF0C2
:1005F000000304F017FE03460C46184609F030FFCE
:100600005320FFF784FF03467B6000215020FFF753
:1006100049FFFFF7E1FE03464FF0000426A2D2E9AE
:10062000001213EB010B44EB020C58466146244ABE
:100630004FF0000304F0F6FD03460C46184609F09F
:100640000FFF01215020FFF72DFFFFF7C5FE0346E6
:100650004FF0000418A2D2E9001213EB010B44EB97
:10066000020C58466146164A4FF0000304F0DAFDCA
:1006700003460C46184609F0F3FE00215020FFF710
:1006800011FF7B68002B87D101214D20FFF7C7FEAA
:1006900001214F20FFF7C3FE01215120FFF7BFFECC
:1006A00001215320FFF7BBFE00BF0837BD46BDE860
:1006B000908800BFAFF300807F9FD500000000004E
:1006C000809FD500000000002DE9904882B000AF67
:1006D0000346FB7100214E20FFF7E4FEFFF77CFE8E
:1006E00003464FF0000432A2D2E9001213EB010BD3
:1006F00044EB020C584661462F4A4FF0000304F0C9
:1007000091FD03460C46184609F0AAFE97F90730FA
:10071000DBB2DB09DBB219465320FFF7C3FEFB79DE
:1007200003F04003002B14BF01230023DBB2194662
:100730005120FFF7B7FEFB7903F02003002B14BF15
:1007400001230023DBB219464F20FFF7ABFEFB79F4
:1007500003F01003002B14BF01230023DBB2194662
:100760004D20FFF79FFE01215020FFF79BFEFFF772
:1007700033FE03464FF000040DA2D2E9001213EB42
:10078000010B44EB020C584661460B4A4FF0000344
:1007900004F048FD03460C46184609F061FE0021AE
:1007A0005020FFF77FFE00BF0837BD46BDE89088A8
:1007B0007F9FD50000000000809FD5000000000052
:1007C0002DE9904882B000AF0346FB71FFF704FEAD
:1007D00003464FF0000436A2D2E9001213EB010BDE
:1007E00044EB020C58466146334A4FF0000304F0D4
:1007F00019FD03460C46184609F032FEFB7903F05A
:100800000803002B14BF01230023DBB21946532039
:10081000FFF748FEFB7903F00403002B14BF01230C
:100820000023DBB219465120FFF73CFEFB7903F0B1
:100830000203002B14BF01230023DBB219464F2013
:10084000FFF730FEFB7903F00103002B14BF0123F7
:100850000023DBB219464D20FFF724FE0121502072
:10086000FFF720FEFFF7B8FD03464FF0000410A28B
:10087000D2E9001213EB010B44EB020C584661461F
:100880000D4A4FF0000304F0CDFC03460C46184619
:1008900009F0E6FD00215020FFF704FEFFF760FE9F
:1008A00000BF0837BD46BDE8908800BFAFF30080A9
:1008B0007F9FD50000000000809FD50080B582B0EA
:1008C00000AF0346FB7100214C20FFF7EBFDFB79E5
:1008D0001846FFF7F9FE00BF0837BD4680BD80B55A
:1008E00082B000AF0346FB71FB791846FFF7E6FFC5
:1008F000FB791846FFF764FF00BF0837BD4680BD8F
:1009000080B582B000AF0346FB7101214C20FFF798
:10091000C9FDFB791846FFF7D7FEFB791846FFF7AC
:100920004FFF00BF0837BD4680BD0000000000003B
:100930002DE9F04800AFFFF762FD01214D20FFF7E0
:100940006EFD01214F20FFF76AFD01215120FFF7C5
:1009500066FD01215320FFF762FD01215020FFF7C2
:100960005EFD01214C20FFF75AFD01214E20FFF7CB
:1009700056FDFFF731FD03461D464FF000062B469E
:1009800034464FF000014FF00002A20042EA937299
:1009900099000B4614465B1944EB06044FF0000126
:1009A0004FF00002E20042EA5372D9000B461446AF
:1009B0005B1B64EB06044FF000014FF000022201C4
:1009C00042EA137219010B4614465B1944EB060404
:1009D0004FF000014FF00002A20142EA9362990138
:1009E0000B4614461946224669A4D4E90034CD18B2
:1009F00042EB040628463146674A4FF0000304F0F4
:100A000011FC03460C46184609F02AFD3020FFF77A
:100A100055FFFFF7E1FC03461D464FF000062B464D
:100A200034464FF000014FF00002A20242EA935216
:100A300099020B4614465B1944EB06044FF0000183
:100A40004FF00002A20042EA937299000B4614464E
:100A5000194622464EA4D4E90034CD1842EB0406D0
:100A6000284631464C4A4FF0000304F0DBFB0346B6
:100A70000C46184609F0F4FC3020FFF71FFFFFF783
:100A8000ABFC03461D464FF00006AB46B4461BEBDD
:100A90000B034CEB0C049B46A4461BEB050B4CEBE9
:100AA000060C4FF000014FF000024FEA4C1242EAF0
:100AB000DB624FEA4B111BEB010B4CEB020C1BEB07
:100AC00005034CEB060432A2D2E900125D1844EB98
:100AD000020628463146304A4FF0000304F0A2FBDC
:100AE00003460C46184609F0BBFC3020FFF7E6FE33
:100AF000FFF736FD2020FFF7E1FEFFF76DFC034610
:100B00001D464FF00006AB46B4461BEB0B034CEB07
:100B10000C049B46A4461BEB050B4CEB060C4FF05C
:100B200000014FF000024FEA4C1242EADB624FEA4A
:100B30004B111BEB010B4CEB020C1BEB05034CEBBD
:100B4000060413A2D2E900125D1844EB02062846FF
:100B50003146114A4FF0000304F064FB03460C4693
:100B6000184609F07DFCFFF7FBFC2820FFF7B7FED5
:100B70000820FFF7B4FE0120FFF7B1FE0620FFF7C3
:100B8000AEFE0C20FFF7ABFE00BFBDE8F08800BF53
:100B90007F9FD50000000000809FD50080B582B007
:100BA00000AF8020FFF79BFE00237B600AE0124B22
:100BB0001A687B6813441B781846FFF7A1FE7B6810
:100BC00001337B607B680F2BF1DDC020FFF787FED0
:100BD0000AE0094B1A687B6813441B781846FFF734
:100BE0008FFE7B6801337B607B681F2BF1DD00BFCC
:100BF0000837BD4680BD00BFBC01072080B582B06C
:100C000000AF7860786801F073FF00BF0837BD4619
:100C100080BD000080B500AF2620FFF7EFFF0B4836
:100C200002F0D1F90021094802F0D9F9102300227D
:100C30000821064802F027FA0121044802F002FACE
:100C40000121024802F04FFA00BF80BD00800C4035
:100C500090B583B000AF00237B60314B1B685B090C
:100C6000184604F017F904462E4B1B682E49184607
:100C700004F068F903461946204604F017FA0346C3
:100C8000184604F0AFFA03463B603A680021274853
:100C900002F0EAF8264802F0BDF978607B68012B83
:100CA0001BD0204B5A68234B1B789B0013441B68B6
:100CB00019461F4802F0B9F91F4B1B78002B06D0CC
:100CC0001C4B1B780133DAB21A4B1A7005E0194B32
:100CD0001B78013BDAB2174B1A70164B1B780A2BA4
:100CE00009D1154B00221A70124B1B78023BDAB265
:100CF000104B1A700CE00F4B1B78002B08D10E4BD9
:100D000001221A700B4B1B780233DAB2094B1A70AE
:100D10000021064802F0CDF800BF0C37BD4690BD5B
:100D2000F0030720C00107200000904100000840A8
:100D300000800C40C50D0720C801072080B48BB08F
:100D400000AF78600B46FB707B687B62FB7887F8AE
:100D500023307B6AFB61FB69BB61BB695B097B611B
:100D60007B6903F5001303F207735B023B6197F89D
:100D70002330002B09D07B6AFB60FB6803F01F0364
:100D800001229A403B691A6308E07B6ABB60BB683A
:100D900003F01F0301229A403B695A6300BF2C37BE
:100DA000BD4680BC704780B48BB000AF78607B6874
:100DB0007B627B6A3B623B6AFB61FB695B09BB61EF
:100DC000BB6903F5001303F207735B027B617B6A67
:100DD0003B613B6903F01F03012202FA03F3FB604E
:100DE0007B69DA6B7B6ABB60BB6803F01F03012180
:100DF00001FA03F31340002B03D07B69FA685A63AE
:100E000002E07B69FA681A6300BF2C37BD4680BCDC
:100E10007047000080B500AF0B4B1B6801330A4AD6
:100E20001360094B1968094BA3FB0123DA08134629
:100E30009B0013449A001344CA1A002A02D1672067
:100E4000FFF7B1FF00BF80BDCC0D07201F85EB5120
:100E500080B584B000AF0023BB60FB1D01221946A2
:100E6000454801F09BF90346BB60FB791B2B08D179
:100E7000BB68002B05D0414B0022DA74404B0122A5
:100E8000DA74BB68002B72D0FB790D2B13D07F2B4B
:100E900002D00A2B2BD02EE03A4B1B78013BDAB262
:100EA000384B1A70384B1B68364A1278103213448C
:100EB00020221A705BE00023FB6014E0324B1A68BA
:100EC000FB6810331A44304B1968FB680B441278E6
:100ED0001A702D4B1A68FB681033134420221A70C5
:100EE000FB680133FB60FB680F2BE7DD3FE0254B20
:100EF00000221A703BE0244B1A68224B1B781033F7
:100F00001344FA792149184604F0BAFB1D4B1B78AB
:100F10000133DAB21B4B1A701B4B1B68194A12784B
:100F20001032134420221A70164B1B78102B1ED13E
:100F3000144B00221A700023FB6014E0124B1A6855
:100F4000FB6810331A44104B1968FB680B44127885
:100F50001A700D4B1A68FB681033134420221A7064
:100F6000FB680133FB60FB680F2BE7DDFFE700BF89
:100F70001037BD4680BD00BFE403072004020720F0
:100F800058020720D00D0720BC010720DC9E080076
:100F900080B582B000AF00237B6000F091FD7860E7
:100FA0007B6803F00103002B04D00222124913488E
:100FB00001F032F97B6803F00203002B04D0022217
:100FC0000F490E4801F028F97B6803F00403002B59
:100FD00004D002220B49094801F01EF97B6803F096
:100FE0000803002B04D002220749044801F014F939
:100FF00000BF0837BD4680BDE09E0800E40307201F
:10100000E49E0800E89E0800EC9E080080B582B0CF
:1010100000AF324B1B78002B39D0304B1A78304B55
:10102000A3FB021399080B469B000B44D31ADBB2B7
:10103000002B0CD1294B1B78322B08D901215620CB
:10104000FFF77CFE01215D20FFF778FE18E0234BBF
:101050001A78234BA3FB021399080B469B000B4401
:10106000D31ADBB2032B0BD11C4B1B78322B07D9C5
:1010700000215620FFF762FE00215D20FFF75EFE93
:10108000164B1B78013BDAB2144B1A7021E0BB1DE2
:1010900001221946134801F081F80346FB71FB79E0
:1010A000012B16D1BB791A4692001344DBB23233BE
:1010B000DAB20A4B1A7001215620FFF73FFE0121D8
:1010C0005D20FFF73BFE054B1B78013BDAB2034B7B
:1010D0001A7000BF0837BD4680BD00BFD10D072084
:1010E000CDCCCCCCE403072080B582B000AFFB1C94
:1010F000012219460E4801F051F803467B60FB7847
:101100001B2B09D17B68002B06D00A4B0122DA7415
:10111000094B0022DA7407E07B68002B04D0FB78CF
:101120001946064801F020FF00BF0837BD4680BDC4
:10113000E4030720040207205802072000080E409D
:1011400090B583B000AF244B1B6803F11004234B10
:101150001B68184603F0AEFA02460B4620492046AB
:1011600004F08EFA78601D4B5B681E4A934216D1DC
:10117000194B1A687B68103313441B4A10681860B7
:1011800092889A8005233B60134B1B687A6802F1B2
:1011900010013A680A44134420221A7017E00E4BDB
:1011A0001A687B6810331344104A106818609188DD
:1011B000927999809A7106233B60074B1B687A6885
:1011C00002F110013A680A44134420221A7000BF49
:1011D0000C37BD4690BD00BFBC010720C0010720F1
:1011E000F09E0800400E0720FC9E0800049F0800A7
:1011F00080B582B000AF00237B6000F061FC7860B6
:101200007B6803F00103002B02D0074B074A5A60AA
:101210007B6803F00203002B02D0034B044A5A60A0
:1012200000BF0837BD4680BDC0010720400E072023
:10123000180E072080B500AF0B4B1B6801330A4A1C
:101240001360094B1968094BA3FB0123DA08134605
:101250005B0013449B00CA1A002A02D16720FFF7E3
:10126000A2FD00BF80BD00BFD40D0720ABAAAAAA73
:1012700080B584B000AF0023FB810023BB813B46D7
:101280001946164801F020F80346BB810023FB8174
:1012900011E0134B1A68FB891033D018FB8907F152
:1012A0001002134413F8103C1A460E4904F0E8F9F2
:1012B000FB890133FB81FA89BB899A4202D0BB8941
:1012C000002BE6D1064B1B68BA891032134420224A
:1012D0001A7000BF1037BD4680BD00BFE403072071
:1012E000BC0107200C9F080080B582B000AF00232E
:1012F0007B600123FB700223BB7003237B700423FC
:101300003B7000F0DDFB78607B6803F00103002B8D
:1013100005D0FB1C01221946134800F07DFF7B68B5
:1013200003F00203002B05D0BB1C012219460E4816
:1013300000F072FF7B6803F00403002B05D07B1CD8
:1013400001221946084800F067FF7B6803F0080394
:10135000002B05D03B4601221946034800F05CFFF4
:1013600000BF0837BD4680BDE403072080B582B0CA
:1013700000AF324B1B78002B39D0304B1A78304BF2
:10138000A3FB021399080B469B000B44D31ADBB254
:10139000002B0CD1294B1B78322B08D90121562068
:1013A000FFF7CCFC01215D20FFF7C8FC18E0234BC0
:1013B0001A78234BA3FB021399080B469B000B449E
:1013C000D31ADBB2032B0BD11C4B1B78322B07D962
:1013D00000215620FFF7B2FC00215D20FFF7AEFC94
:1013E000164B1B78013BDAB2144B1A7021E0BB1D7F
:1013F00001221946134800F0D1FE0346FB71FB7928
:10140000012B16D1BB791A4692001344DBB232335A
:10141000DAB20A4B1A7001215620FFF78FFC012126
:101420005D20FFF78BFC054B1B78013BDAB2034BC9
:101430001A7000BF0837BD4680BD00BFD80D072019
:10144000CDCCCCCCE403072080B400AF0A4B1B68A2
:101450000133094A1360084B1B68084A934207D9B5
:10146000054B1B68A3F55223A3F57063024A136072
:1014700000BFBD4680BC7047C80D0720002F0D007F
:1014800080B586B002AF244B1B68244AA2FB03231D
:10149000DB08FB60FB68224A82FB03121A445211EC
:1014A000DB17D31ABB60BB681D4A82FB03121A44C8
:1014B0005211DB17D31A7B60FA68194B83FB0213B6
:1014C00013445911D317C91A0B461B015B1A9B0011
:1014D000D31AFB60BA68124B83FB021313445911F1
:1014E000D317C91A0B461B015B1A9B00D31ABB60AA
:1014F0000C4B1868FB680093BB687A680A4904F0D3
:10150000BFF83860074B1A683B68134420221A70F2
:1015100000BF1037BD4680BDC80D0720CDCCCCCC58
:1015200089888888BC010720109F080080B582B098
:1015300000AF00237B600023FB7000F0C1FA7860ED
:101540007B6803F00103002B06D01A4B1B6803F5E0
:101550000C43A033174A13607B6803F00203002B8F
:1015600005D0144B1B6803F51673124A13607B6891
:1015700003F00803002B02D00E4B00221A6000F08B
:101580004DFA034683F00F03002B14BF0123002301
:10159000FB70FB78002B08D0064B1B68002B04D097
:1015A000044B1B68013B034A136000BF0837BD466C
:1015B00080BD00BFC80D072080B485B000AF786043
:1015C00039600023FB600BE0FB689B007A681344E2
:1015D0001A680B49FB6841F82320FB680133FB6064
:1015E000FB689B007A6813441B68002BECD1054A0A
:1015F0003B68136000BF1437BD4680BC704700BF16
:10160000680E07208C03072080B483B000AF034628
:10161000FB71FB7903F01F03012202FA03F1054A73
:1016200097F907305B0942F8231000BF0C37BD461D
:1016300080BC704700E100E080B483B000AF034697
:101640003960FB7197F90730002B0BDA3B68DAB28F
:101650000C49FB7903F00F03043B1201D2B20B4497
:101660001A7609E03B68DAB2074997F907301201A8
:10167000D2B20B4483F8002300BF0C37BD4680BCB8
:10168000704700BF00ED00E000E100E080B582B0EF
:1016900000AF7860786801F02BFA00BF0837BD46CC
:1016A00080BD80B500AF0B20FFF7F0FF0C20FFF7E7
:1016B000EDFF0D20FFF7EAFF0E20FFF7E7FF00BF69
:1016C00080BD80B489B000AF78607B68FB61FB6946
:1016D000BB61BB695A09FB697B617B6903F01F032E
:1016E000012101FA03F33A61FB603B69BB60BB680F
:1016F00003F5001303F207735B021A46FB681360DD
:1017000000BF2437BD4680BC704780B48DB000AFA9
:10171000786039607B68FB623B68BB62FB6A7B6216
:101720007B6A5A09FB6A3B623B6A03F01F03012193
:1017300001FA03F3FA61BB61BB6A7B61FB693B6140
:101740003B6903F5001303F207735B02FB607B69DF
:1017500003F00803002B03D0FB68BA695A6602E065
:10176000FB68BA691A667B6903F02003002B03D07B
:10177000FB68BA691A6502E0FB68BA695A657B6959
:1017800003F0C003002B03D0FB68BA691A6202E0C1
:10179000FB68BA695A627B6903F08003002B04D0AE
:1017A000FB68BA69C3F8842003E0FB68BA69C3F830
:1017B00080207B6903F00103002B06D0FB681A6FC1
:1017C000BB691A43FB681A6706E0FB681A6FBB69BE
:1017D000DB431A40FB681A6700BF3437BD4680BC44
:1017E000704780B48DB000AF78600B46FB707B68AB
:1017F000FB62FB7887F82B30FB6A7B627B6A3B627B
:101800003B6A5B09FB61FB6903F5001303F2077395
:101810005B02BB6197F82B30012B09D1FB6A7B611E
:101820007B6903F01F0301229A40BB691A610CE037
:1018300097F82B30002B08D1FB6A3B613B6903F022
:101840001F0301229A40BB695A61FB6AFB60FB6877
:1018500003F01F0301229A40BB69C3F8A02000BF18
:101860003437BD4680BC704780B48BB000AF786021
:101870000B46FB707B687B62FB7887F823307B6AC2
:10188000FB61FB69BB61BB695B097B617B6903F53C
:10189000001303F207735B023B6197F82330002BC0
:1018A00009D07B6AFB60FB6803F01F0301229A40AA
:1018B0003B691A6308E07B6ABB60BB6803F01F03E7
:1018C00001229A403B695A6300BF2C37BD4680BC59
:1018D000704780B489B000AF78607B68FB61FB69BA
:1018E000BB61BB697B617B695B093B613B6903F55C
:1018F000001303F207735B02DA6BFB69FB60FB68A2
:1019000003F01F03012101FA03F31340002B14BF5E
:1019100001230023DBB218462437BD4680BC704744
:1019200080B500AFFFF7BDFE5620FFF7CAFE552079
:10193000FFF7C7FE5D20FFF7C4FE6720FFF7C1FE7B
:101940003B20FFF7BEFE01215620FFF74AFF012191
:101950005520FFF746FF01215D20FFF742FF0121DF
:101960006720FFF73EFF01213B20FFF73AFF0021F0
:101970005620FFF779FF00215520FFF775FF002162
:101980005D20FFF771FF00216720FFF76DFF4FF02B
:1019900000624FF04051204801F03BF95720FFF71B
:1019A00090FE5820FFF78DFE5920FFF78AFE5A203F
:1019B000FFF787FE00215720FFF713FF0021582073
:1019C000FFF70FFF00215920FFF70BFF00215A20DE
:1019D000FFF707FF80215720FFF797FE802158204F
:1019E000FFF793FE80215920FFF78FFE80215A20B8
:1019F000FFF78BFE08215720FFF787FE08215820AC
:101A0000FFF783FE08215920FFF77FFE08215A20A7
:101A1000FFF77BFE00BF80BD00100E4080B58AB08E
:101A200000AF00237B6200233B620023FB610023A5
:101A3000BB6100237B6100233B610023FB6000232B
:101A4000BB6000237B6001233B610223FB60042316
:101A5000BB6008237B605720FFF73BFF03463B62D8
:101A60005820FFF736FF03465B00FB615920FFF764
:101A700030FF03469B00BB615A20FFF72AFF034655
:101A8000DB007B613A6A3B6913407A6A13437B62ED
:101A9000FA69FB6813407A6A13437B62BA69BB68D0
:101AA00013407A6A13437B627A697B6813407A6ACF
:101AB00013437B627B6A18462837BD4680BD000011
:101AC00080B58AB000AF00237B6100233B61002317
:101AD000FB600023BB6000237B6000233B6000238E
:101AE0007B6200233B620023FB610023BB61572024
:101AF000FFF7EFFE03463B615820FFF7EAFE03467F
:101B00005B00FB605920FFF7E4FE03469B00BB60CF
:101B10005A20FFF7DEFE0346DB007B603A69FB6874
:101B20001A43BB6813437A6813437B611D4B1B68E0
:101B300003F00103002B04D03B69002B01D10123EA
:101B40007B62184B1B6803F00203002B04D0FB6878
:101B5000002B01D102233B62124B1B6803F00403EC
:101B6000002B04D0BB68002B01D10423FB610D4B7B
:101B70001B6803F00803002B04D07B68002B01D105
:101B80000823BB617A6A3B6A1A43FB691343BA694B
:101B900013433B60034A7B6913603B681846283750
:101BA000BD4680BDDC0D072080B500AF2520FFF7C6
:101BB0006DFD0F4B19684FF480230E4A0E4801F05B
:101BC00067F801234FF4401200210B4801F0BFF8E1
:101BD0000021094801F08DF800220021064801F09B
:101BE0009FF80721044801F0DDF800BF80BD00BF69
:101BF000F003072000A8610000000C400000000076
:101C000080B584B000AF0023FB608023BB6000235D
:101C10007B601F4801F0BAF81D4801F0EEF802465B
:101C2000BB681340FB60FB68002BF5D00721184808
:101C300001F0CAF87860786803F02CF9034615497A
:101C4000184603F07FF903461349184603F02EFAAD
:101C500003461A46114B1A60104B1B68184602F0D7
:101C600029FD09A3D3E9002302F0EEFF0346002B70
:101C700000D102E0094B0A4A1A6000BF1037BD4686
:101C800080BD00BFAFF300809A9999999999B93FA7
:101C900000000C400000F04100F07F45C00107202B
:101CA000CDCCCC3D80B500AF1B20FFF7EFFC1B2057
:101CB000FFF7AAFC00211B20FFF7BEFC0A4A002107
:101CC0000A4801F0A5F818220021084801F0DEF8C2
:101CD000074A0021054801F0C7F80021034801F038
:101CE000B3F800BF80BD00BF02C00009000008407B
:101CF000E80D280080B483B000AF0346FB71FB7988
:101D000003F01F03012202FA03F1054A97F9073095
:101D10005B0942F8231000BF0C37BD4680BC7047FA
:101D200000E100E00000000090B583B000AF0023A8
:101D3000FB7141E0FB795B000933184602F0A8FC17
:101D40003BA3D3E9002302F00DFD03460C461846E1
:101D500021464FF000023A4B02F02EFE03460C469D
:101D60001846214601F0D4F94FF00002354B02F03D
:101D700043FB03460C46184621462FA3D3E9002314
:101D800002F0F0FC03460C46184621464FF00002D4
:101D90004FF0804302F010FE03460C461A462346DD
:101DA000FC791046194602F09FFF0246264B43F885
:101DB0002420FB790133FB71FB79092BBAD900236D
:101DC000FB7111E0FA7913461B039B1A1F4A82FB31
:101DD00003125210DB17D21AFB7911461C4A42F843
:101DE0002310FB790133FB71FB79092BEAD900F051
:101DF00011FD184B4FF400425A60FFF791FDFEF7BA
:101E000097FDFEF707FFFFF7CFFEFFF74BFF00F050
:101E10007BF84FF0FF30FFF76DFF44F62060FEF7D0
:101E2000D7F90346002B00D0FEE7FEF723FAFEE7C2
:101E30001F85EB51B81EF93F0000000000FEAF40C7
:101E4000000022400000F03F400E0720398EE338AA
:101E5000180E0720501A0E4080B483B000AF03461E
:101E6000FB71FB7903F01F03012202FA03F1054A1B
:101E700097F907305B0942F8231000BF0C37BD46C5
:101E800080BC704700E100E080B483B000AF03463F
:101E90003960FB7197F90730002B0BDA3B68DAB237
:101EA0000C49FB7903F00F03043B1201D2B20B443F
:101EB0001A7609E03B68DAB2074997F90730120150
:101EC000D2B20B4483F8002300BF0C37BD4680BC60
:101ED000704700BF00ED00E000E100E080B582B097
:101EE00000AF7860786800F003FE00BF0837BD4699
:101EF00080BD80B582B000AF7860786800F036FEB3
:101F000000BF0837BD4680BD80B584B000AF184B18
:101F10001B687B604FF4E133BB604FF40063FB60F0
:101F20000820FFF799FF0B20FFF7D8FF0820FFF7E5
:101F3000D5FF4FF440724FF000610E4800F069FE8B
:101F400001224FF440710B4800F04EFE3B1D194634
:101F5000094800F0BFFF0121074800F0EBFF012115
:101F60000820FFF791FF00BF1037BD4680BD00BFBE
:101F7000F0030720000E0E4000080E40F0B589B0B7
:101F800002AF7A4B5B6903F0E003002B41D0784B42
:101F90001868764B5B69DB1103F00102734B5B69D8
:101FA0009B1103F00101714B5B695B1103F00103AD
:101FB00000930B466F4903F063FB78616C4B1A6822
:101FC0007B69134420221A70FEF7E8FD674800F091
:101FD000BEFFFFF775FD38613B6903F00803002B76
:101FE000F7D0634B1B68644A1C4615460FCD206032
:101FF0006160A260E3600FCD20616161A261E36175
:102000001F237B615A4B1A687B69134420221A7084
:102010000CE007F10F031946544800F0BCFF07F12C
:102020000F0301221946554800F0F6F83B1D1946EA
:10203000524800F049F903467B617B69013B07F197
:102040001802134413F8143C313B032B00F2888030
:1020500001A252F823F000BF69200800A720080061
:10206000E52008002321080045494648FFF7A4FA67
:102070003F4B1B68444A14469C4604F1200E6546BB
:1020800026460FCE28606960AA60EB6010340CF120
:10209000100C7445F3D16346224612781A701B2047
:1020A000FFF727FF5DE000213848FFF785FA304B46
:1020B0001B68354A14469C4604F1200E65462646A8
:1020C0000FCE28606960AA60EB6010340CF1100C30
:1020D0007445F3D16346224612781A701B20FFF72D
:1020E000FDFE3EE02A492B48FFF766FA204B1B68AD
:1020F000254A14469C4604F1200E654626460FCE1E
:1021000028606960AA60EB6010340CF1100C744513
:10211000F3D16346224612781A701B20FFF7E9FEBE
:102120001FE000211C48FFF747FA114B1B68164AB5
:1021300014469C4604F1200E654626460FCE2860C4
:102140006960AA60EB6010340CF1100C7445F3D197
:102150006346224612781A701B20FFF7CAFE00E081
:1021600000BF00BF1C37BD46F0BD00BF00080E40D9
:10217000BC010720249F0800489F0800E4030720B3
:10218000E801072090030720689F0800A8030720A4
:102190001C030720BC030720D003072080B487B0AE
:1021A00000AFF860B9601346FB800023FB8220E09B
:1021B000FB689B68FA6852881A44FB8AB9680B442A
:1021C00012781A70FB685B8801339AB2FB685A80F8
:1021D000FB685A880F4BA3FB0213D9080B469B00E0
:1021E0000B445B00D31A9AB2FB685A80FB8A013316
:1021F000FB82FA8AFB889A4205D2FB685A88FB6800
:102200001B889A42D4D1FB8A18461C37BD4680BC35
:10221000704700BFCDCCCCCC80B487B000AFF860A5
:10222000B9601346FB80FB689B79002B41D1FB68AA
:1022300001229A710023FB8232E0FB681B88591C43
:102240001F4B83FB01239A10CB17D21A13469B0016
:1022500013445B00CA1AFB685B889A4225D0FB8A4C
:10226000BA681A44FB689B68F96809880B441278BD
:102270001A70FB681B8801339AB2FB681A80FB68EE
:102280001A88104BA3FB0213D9080B469B000B4482
:102290005B00D31A9AB2FB681A80FB8A0133FB8277
:1022A000FA8AFB889A42C8D300E000BFFB6800228C
:1022B0009A71FB8A18461C37BD4680BC704700BF28
:1022C00067666666CDCCCCCC80B485B000AF786054
:1022D00039607B685B88FB810023BB8119E07B68E8
:1022E0009A68FB891A44BB8939680B4412781A70C2
:1022F000FB890133FB81FA890B4BA3FB0213D9083D
:102300000B469B000B445B00D31AFB81BB89013356
:10231000BB817B681B88FA899A42E0D1BB89184649
:102320001437BD4680BC7047CDCCCCCC80B400AF58
:10233000574B1B6B03F00303032B00F28A8001A2AF
:1023400052F823F05523080075230800C523080020
:10235000C52308004F4B5B6903F08003002B04D0BA
:102360004D4B4FF400421A6073E04B4B4FF4FA426E
:102370001A606EE0464B1B6A03F08073002B03D09B
:10238000454B464A1A6064E0434B454A1A60404B4D
:102390001B6A03F07003102B04D0202B08D0002BF5
:1023A0000ED00EE03C4B1B685B003B4A136008E01C
:1023B000394B1A6813465B001344374A136000E038
:1023C00000BF46E0324B1B6A03F08073002B03D042
:1023D000314B324A1A601CE02F4B314A1A602C4BA9
:1023E0001B6A03F07003102B04D0202B08D0002BA5
:1023F0000ED00EE0284B1B685B00274A136008E0F4
:10240000254B1A6813465B001344234A136000E00F
:1024100000BF1F4B1B6B03F00303022B15D11C4B9A
:102420009B6A1B0CC3F30A0301331B4A126802FBAD
:1024300003F3194A1360164B9B6ADBB2164A126803
:10244000B2FBF3F3144A136002E0134B154A1A600F
:1024500000BF0F4B1B6B03F07003702B08D10E4BAA
:102460001B68114AA2FB03235B080B4A13600AE0B6
:10247000074B1B6B1B0903F00703074A126822FA7C
:1024800003F3054A136000BFBD4680BC704700BF20
:1024900000060E40101A0E40F0030720001BB70084
:1024A00000093D00001C4E0EABAAAAAA80B400AFE2
:1024B000FEE7000080B582B000AF1E4B7B601E4B74
:1024C0003B607A683B689A420CD007E07A68131D3B
:1024D0007B603B68191D396012681A603B68174AB7
:1024E0009342F3D3164B3B6004E03B681A1D3A60FD
:1024F00000221A603B68134A9342F6D3124B7B606A
:102500007B68124A23F0604323F07F0393607B686B
:10251000B3F1005F09D37B680D4A934205D80B4B9A
:102520009B680A4A43F00053936003F01DF8FFF7DD
:10253000FBFBFEE77CA4080000000720A40D072099
:10254000A40D0720AC0E07200000080000ED00E0FD
:10255000FFFF0F2080B582B000AF78607B68072B4B
:1025600031D801A252F823F0C525080089250800BA
:102570009125080099250800A1250800A925080033
:10258000B1250800BB250800002000F0D7F91AE0AB
:10259000012000F0D3F916E0002000F005FA12E067
:1025A000102000F001FA0EE0202000F0FDF90AE012
:1025B0003E21002000F030FA05E03E21012000F02D
:1025C0002BFA00E000BF00BF0837BD4680BD00BF4A
:1025D00080B582B000AF78607B68072B26D801A257
:1025E00052F823F0052608000926080009260800ED
:1025F0001B2608001B2608001B2608001B260800B7
:102600001B260800012312E000F0B4F90346002B5A
:1026100014BF01230023DBB209E000F039FA0346BE
:10262000002B14BF01230023DBB200E00023184677
:102630000837BD4680BD00BF80B483B000AF78606E
:102640007B68072B25D801A252F823F06D260800DD
:1026500073260800792608007F26080083260800D4
:10266000872608008B2608008F2608004FF4FA43BF
:1026700010E04FF400430DE04FF400430AE0084B34
:1026800008E0084B06E0084B04E0074B02E0064B6D
:1026900000E0002318460C37BD4680BC704700BFE1
:1026A00000093D0000127A00001BB70080B582B01F
:1026B00000AF0346FB7100BFFB791846FFF788FFA8
:1026C000034683F00103DBB2002BF5D100BF0837CE
:1026D000BD4680BD80B586B000AFF8607A603B60D3
:1026E0000B46FB727B68002B07D13B68002B04D1A3
:1026F000FB684FF470021A6019E0FB7A1846FFF786
:102700009BFF02467B68B2FBF3F37B617B693A680F
:1027100002FB03F37B613B68013B1A04064B134049
:102720007A68D2B2134343F47C52FB681A6000BF4C
:102730001837BD4680BD00BF0000FF0780B582B0DE
:1027400000AF786039603B68002B08D100F0ACF92D
:102750007B681B68074A43F00053936205E07B687F
:102760001B68044A43F48033D36100BF0837BD4679
:1027700080BD00BF00060E4080B582B000AF78601B
:102780007B68002B03D100F09BF9034602E000F0C8
:10279000A3F9034618460837BD4680BD80B582B010
:1027A00000AF0346FB71FB79033B042B08D8FB7990
:1027B0001846FFF7CFFEFB791846FFF777FF00E0DA
:1027C00000BF00BF0837BD4680BD80B582B000AFF6
:1027D000786000BF7868FFF7CFFF0346002BF9D081
:1027E000002318460837BD4680BD80B500AF0620DF
:1027F000FFF722FF02461346DB009B1A5B001846D8
:1028000080BD80B500AFFFF7F0FF03465B081846B8
:1028100080BD000080B582B000AF114807F024FEF3
:102820000620FFF7BBFF381D0E2301220621FFF70C
:1028300051FF3B1D00211846FFF780FF0020FFF7E6
:10284000C4FF102000F03AF8FFF770FDFFF7D9FF42
:102850000346184607F008FE00BF0837BD4680BD96
:1028600000BD010580B485B000AF7860104BFB60FF
:10287000104B1B68002B02D10E4B0F4A1A600D4BF8
:102880001B68BB60BA687B681344FA689A4202DA34
:102890004FF0FF3306E0074B1A687B681344054A84
:1028A0001360BB6818461437BD4680BC704700BF34
:1028B000FC7F0820E00D0720B02E072080B485B0F3
:1028C00000AF78601C4B1B6B23F070021A497B68C9
:1028D00013430B634FF40063FB6007E0FB68002BBE
:1028E00001D1012323E0FB68013BFB60124B9B6E8F
:1028F00003F00803002BF1D00F4B1B6B23F00303F5
:102900000D4A43F0020313634FF40063FB6007E0DA
:10291000FB68002B01D1012309E0FB68013BFB6050
:10292000054B9B6E03F00803002BF1D000231846E3
:102930001437BD4680BC704700060E4080B483B09B
:1029400000AF78607B68012B07D1084B9B68074A72
:1029500043F0254343F480139360044B044A1A6008
:1029600000BF0C37BD4680BC704700BF101A0E4038
:10297000080000A580B400AF094B5B6903F0800339
:10298000002B07D0074B9B6E03F08003002B01D078
:10299000012300E000231846BD4680BC704700BFFD
:1029A000101A0E4000060E4080B483B000AF78606D
:1029B000184B1B6A174A43F45C1343F00803136275
:1029C00000BF144B9B6E03F40033002BF9D0114B66
:1029D0001B6A23F45C1323F070037A6813430D4AD7
:1029E00043F45C13136200BF0A4B9B6E03F4003385
:1029F000002BF9D0074B1B6A23F09B7323F4803321
:102A0000044A43F45C13136200BF0C37BD4680BC1C
:102A1000704700BF00060E4080B483B000AF7860FE
:102A200039607B68002B08D0164B1B6A164A1A4087
:102A30001449164B13430B621EE0124B1B6A23F41E
:102A40005C1323F003033A68120292B213430D4A57
:102A500043F45C1343F00103136200BF094B9B6E08
:102A600003F00103002BF9D0064B1B6A054A43F023
:102A70009B7343F48033136200BF0C37BD4680BCA8
:102A8000704700BF00060E40FCFFC8FE0200370181
:102A900080B400AF034B9B6E03F480331846BD46F1
:102AA00080BC704700060E4080B400AF034B4FF06F
:102AB00000529A6200BFBD4680BC704700060E40BF
:102AC00080B400AF034B9B6E03F002031846BD4673
:102AD00080BC704700060E4080B400AF034B9B6E75
:102AE00003F040031846BD4680BC704700060E4008
:102AF00080B483B000AF78607B682C2B01D90123B0
:102B00002DE07B681F2B12D8174B9A6901217B6837
:102B100001FA03F31A4001217B6801FA03F39A4298
:102B20001CD001227B689A400F4B1A6116E07B682B
:102B3000203B7B600C4BD3F8082101217B6801FA14
:102B400003F31A4001217B6801FA03F39A4205D08E
:102B500001227B689A40044BC3F8002100231846E9
:102B60000C37BD4680BC704700060E4080B483B071
:102B700000AF78607B682C2B01D901232DE07B68A6
:102B80001F2B12D8174B9A6901217B6801FA03F3B6
:102B90001A4001217B6801FA03F39A421CD10122F9
:102BA0007B689A400F4B5A6116E07B68203B7B6044
:102BB0000C4BD3F8082101217B6801FA03F31A407A
:102BC00001217B6801FA03F39A4205D101227B6857
:102BD0009A40044BC3F80421002318460C37BD4625
:102BE00080BC704700060E4080B485B000AFF8602E
:102BF000B9607A607B68002B03D0FB68BA685A66BC
:102C000002E0FB68BA681A6600BF1437BD4680BC94
:102C1000704780B487B000AFF860B9607A60FB6835
:102C20007A685A64BB68B3F1805F1FD0B3F1805FEC
:102C300005D8002B27D0B3F1006F0AD01FE0B3F105
:102C4000405F20D0B3F1605F1DD0B3F1205F1AD098
:102C500015E0FB681B6F7B61FB681A6F7B68D943CB
:102C60007B690B401A40FB681A6708E0FB681B6F22
:102C70007B617A687B691A43FB681A6700BFFB684F
:102C80007A685A6000E000BF1C37BD4680BC7047C0
:102C900080B487B000AFF860B9607A603B60FB68D1
:102CA00001221A60FB6800225A60FB6840F202228F
:102CB000C3F82021FB680022C3F80421FB6800222E
:102CC000C3F814217B685B00BA68B2FBF3F3013BE5
:102CD0007B61FB685A687B691B0299B23B680B43B6
:102CE0001A43FB685A60002318461C37BD4680BC57
:102CF000704780B483B000AF78600B46FB707B6890
:102D00005B6823F010027B685A607B685A68FB7826
:102D10001A437B685A6000BF0C37BD4680BC7047C1
:102D200080B483B000AF78600B46FB701346BB7075
:102D30007B685A68F978BB78DB01DBB20B431A4336
:102D40007B685A6000BF0C37BD4680BC704780B4BA
:102D500085B000AFF8607A601A460B46FB721346E6
:102D6000BB72FB685A68BB7A1B0703F040517B6853
:102D70001943FB7A1B0603F070630B431A43FB688D
:102D80005A6000BF1437BD4680BC704780B483B022
:102D900000AF78607B6802221A6000BF0C37BD4626
:102DA00080BC704780B483B000AF78600B46FB7086
:102DB000FB78012202FA03F31A467B681A6100BF0E
:102DC0000C37BD4680BC704780B485B000AF7860DA
:102DD0000B46FB700023FB60FB780F2B07D87B684A
:102DE00003F15002FB789B0013441B68FB60FB68F7
:102DF00018461437BD4680BC704780B483B000AF1E
:102E000078607B681B6B18460C37BD4680BC7047EA
:102E100080B487B000AFF860B9607A60FA68BB68C8
:102E20009B0113447B617B6902221A607B694FF02E
:102E3000FF329A627B691B6A7B697A685A6000BFBD
:102E40001C37BD4680BC704780B483B000AF78604B
:102E500039607A683B689B01134405221A6000BF01
:102E60000C37BD4680BC704780B485B000AFF860B9
:102E7000B9607A60FA68BB689B0113441C337A68B6
:102E80001A6000BF1437BD4680BC704780B487B05D
:102E900000AFF860B9607A60FA68BB689B011344C0
:102EA0007B617B697A685A6200BF1C37BD4680BC73
:102EB000704780B485B000AF786039607A683B684D
:102EC0009B011344FB60FB681B6A18461437BD4620
:102ED00080BC704780B485B000AF78603960002353
:102EE000FB607B68AC221A603B681A683B685B68D1
:102EF000B2FBF3F31B09FB60FB68002B03D0FB68FC
:102F0000B3F5803F01D301230FE07B68FA681A62B2
:102F10003B689A687B685A607B6840F20222C3F87B
:102F200020217B6850221A60002318461437BD46C2
:102F300080BC704780B483B000AF786039607B6834
:102F40003A689A6000BF0C37BD4680BC704780B4B9
:102F500083B000AF78607B684FF480721A6000BF66
:102F60000C37BD4680BC704780B483B000AF78603A
:102F70000B46FB707B685B6903F00203002B01D1F9
:102F8000012303E0FA787B68DA61002318460C37E6
:102F9000BD4680BC704780B483B000AF78603960B4
:102FA0007B685B6903F00103002B01D1012305E07D
:102FB0007B689B69DAB23B681A70002318460C37AD
:102FC000BD4680BC704780B483B000AF78607B683A
:102FD00001221A6000BF0C37BD4680BC704780B428
:102FE00083B000AF786039603B68002B06D07B6807
:102FF0005B6843F010027B685A6005E07B685B68A1
:1030000023F010027B685A60002318460C37BD4637
:1030100080BC704780B483B000AF78607B681B6B66
:1030200018460C37BD4680BC704780B483B000AFF3
:10303000786039607B683A681A6200BF0C37BD4619
:1030400080BC704780B485B000AF786039607B6821
:103050005B6823F44033FB603B68012B01D90123FB
:103060000CE0FB6823F48013FB603B681B04FA68E8
:103070001343FB607B68FA685A60002318461437D4
:10308000BD4680BC704780B487B000AFF860B960BF
:103090007A603B60FB685B6823F07C5323F47F43DA
:1030A0007B61BB681B029BB27A6913437B617B68BF
:1030B000002B04D07B6943F400137B6103E07B6940
:1030C00023F400137B613B681B0603F07C537A6991
:1030D00013437B61FB687A695A60002318461C37EA
:1030E000BD4680BC704780B483B000AF7860396063
:1030F0003B68012B01D9012305E001223B689A407E
:103100007B681A61002318460C37BD4680BC7047A7
:1031100030B5214A21F00043934287B01BDD1F4A9E
:10312000934205DD02460B4601F064F907B030BD5D
:1031300002AA00F035F800F00300012813D002289D
:103140001FD0DDE90423A8B1DDE9020100F048FA4F
:1031500001F10041EAE7002400220023009400F07E
:103160008BFF07B030BDDDE90423DDE9020100F08B
:1031700037FADBE70124DDE90201009400F07CFF6F
:10318000D4E70124DDE90423DDE90201009400F025
:1031900073FF01F10041C9E7FB21E93FFFFFEF7F2A
:1031A0002DE9F04FC84C21F00045A5428FB040F307
:1031B0008A801446C54A0E46954226DCB8A3D3E958
:1031C0000023002940F38A8001F014F9C04B064621
:1031D0009D420F4600F04681B3A3D3E9002301F0DE
:1031E00009F902460B463046C4E90023394601F08E
:1031F00001F9ADA3D3E9002301F0FCF80127C4E9EC
:10320000020138460FB0BDE8F08FB24A954240F354
:103210008480B14A954200F31B812F15A7F216470F
:10322000A5EB07518B46824601F036FD01F030FADE
:103230008046894642464B4650465946CDE9088964
:1032400001F0D8F80022A54B01F08CFA8B4682469B
:1032500001F022FD01F01CFA8046894642464B46A9
:1032600050465946CDE90A8901F0C4F800229B4B2B
:1032700001F078FA00220023CDE90C0101F0DAFC1C
:10328000002800F05F81002340464946002201F0FB
:10329000D1FC002814BF01230223022090493A46A2
:1032A000CDE90001214608A800F0BEFA002E07462D
:1032B00010DA6268E36802F1004203F1004347421A
:1032C0006260E36006E0002400250027C2E90245B1
:1032D000C2E9000138460FB0BDE8F08F01F08CF86C
:1032E0007B4B06469D420F4600F00E816EA3D3E94C
:1032F000002301F081F802460B4630463946C4E906
:10330000002301F077F868A3D3E9002301F074F8F3
:103310004FF0FF37C4E90201DCE700F063FF64A36C
:10332000D3E900238046894601F01CFA00226D4B48
:1033300001F062F801F0B0FC074601F0A9F958A3CA
:10334000D3E9002382468B46CDE904AB01F00AFAAB
:1033500002460B464046494601F04CF852A3D3E9D9
:103360000023CDE902015046594601F0FBF91F2F19
:103370008046894602460B46DDE9020140F3B480EF
:1033800001F038F883468A462D15CAF30A53EB1A22
:10339000102B40F3B48048A3D3E90023DDE90401F6
:1033A00001F0E0F98046894602460B46DDE902015C
:1033B00001F020F882468B4602460B46DDE9020109
:1033C00001F018F842464B4601F014F83CA3D3E94B
:1033D000002380468946DDE9040101F0C3F9424635
:1033E0004B4601F007F80B46024680468946504698
:1033F0005946CDE906AB00F0FDFFC1F30A53ED1AC3
:10340000312D83468A4600F39F8002460B46DDE954
:103410000601C4E90023CDE90201DDE902015A46B3
:10342000534600F0E7FF42464B4600F0E3FF0246FA
:103430000B46002EC4E90223BFF64CAF0AF100434D
:1034400001F10041C4E900B3C4E902017F4241E750
:1034500002460B4600F0CEFF0027C4E90201C4E992
:10346000000137E714A3D3E9002300F0C3FF14A33E
:10347000D3E900230F46064600F0BCFF02460B4688
:1034800030463946C4E9002300F0B4FF0CA3D3E969
:10349000002300F0AFFF0127C4E902011AE700BFD3
:1034A00000004054FB21F93F3163621A61B4D03D02
:1034B00083C8C96D305FE43F0000601A61B4D03D3D
:1034C0007370032E8A19A33BFB21E93F7BD902408D
:1034D000FB21F93FFB213941FFFFEF7F00007041E5
:1034E0000CA008000000E03F00F084FF3A4B7A1E79
:1034F00053F822308346AB428A463FF445AF5A46E2
:103500005346C4E9002388E72BA3D3E9002300F046
:1035100073FF2BA3D3E900230F46064600F06CFF90
:1035200002460B4630463946C4E9002300F062FFEC
:1035300023A3D3E9002300F05FFF4FF0FF37C4E976
:103540000201C7E60323A8E61FA3D3E90023DDE9B0
:10355000040101F007F98046894602460B46DDE981
:10356000060100F047FF82468B4602460B46DDE926
:103570000601CDE902AB00F03DFF42464B4600F0AC
:1035800039FF13A3D3E9002380468946DDE904010E
:1035900001F0E8F842464B4600F02CFF02460B468D
:1035A000804689465046594600F024FF83468A46A5
:1035B000A5E700BFAFF300800000601A61B4D03D02
:1035C0007370032E8A19A33B0000002E8A19A33BB7
:1035D000C14920259A837B398C9F08000000000098
:1035E0002DE9F04F21F00046B6F1795F85B00C4629
:1035F00092469B4605466BDA01F04EFB002800F030
:10360000E1802A4623462846214601F0ABF874A300
:10361000D3E900238046894601F0A4F872A3D3E9D8
:10362000002300F0E9FE42464B4601F09BF870A3F0
:10363000D3E9002300F0DEFE42464B4601F092F84B
:103640006DA3D3E9002300F0D7FE42464B4601F0BC
:1036500089F86BA3D3E9002300F0CCFE42464B4629
:1036600001F080F868A3D3E9002300F0C5FE4246CC
:103670004B4601F077F8CDE900010022644B40464B
:10368000494601F06FF8DDE9002306460F46404643
:10369000494601F067F85246804689465B4628460F
:1036A000214601F05FF802460B464046494600F0CD
:1036B000A1FE02460B463046394600F09BFE02460C
:1036C0000B460020534900F095FE05B0BDE8F08F91
:1036D00002460B4601F046F841A3D3E90023804699
:1036E000894601F03FF840A3D3E9002300F084FEAF
:1036F00042464B4601F036F83DA3D3E9002300F0E3
:1037000079FE42464B4601F02DF83BA3D3E9002356
:1037100000F072FE42464B4601F024F838A3D3E98C
:10372000002300F067FE42464B4601F01BF836A32B
:10373000D3E9002300F060FE4B46424601F012F848
:10374000354BCDE900019E4297DD344B00229E426D
:103750003DDCA6F5001300202E4916461F4600F05A
:1037600049FECDE902010022294B4046494600F0BE
:10377000F9FF32463B4600F03DFEDDE900230646F8
:103780000F464046494600F0EDFF524680468946C6
:103790005B462846214600F0E5FF02460B464046C0
:1037A000494600F027FE02460B463046394600F0F7
:1037B00021FE02460B46DDE9020100F01BFE05B0CA
:1037C000BDE8F08F0020134905B0BDE8F08F144B21
:1037D0000026CDE90223134FC5E700BFAFF30080F9
:1037E000D43888BEE9FAA8BDC4B1B4BD9EEE213E6E
:1037F000AD529C804F7E923E9015CB19A001FA3EAF
:103800007751C1166CC1563F4C5555555555A53F7E
:103810000000E03F0000F03F3233D33F0000E93FBB
:103820000000E73F0000D23F2DE9F04F1F46ADF505
:10383000197DBF4C0793D31E84FB0354DB17C3EBE6
:10384000A40323EAE375BB4CA29E6B1C54F82660CC
:10385000A3EB83037C1E02EBC30305933319099585
:103860000496019407460B91A5EB04081DD443442C
:10387000002400255E1C0DF18009DDF88CA209E012
:103880005AF8280000F004FF08F10108B045E9E803
:1038900002010AD0B8F1000FF2DA2046294608F1F9
:1038A0000108B045E9E80201F4D1049B002BC0F205
:1038B000B783A7F108021146079B0392DB0020AAF9
:1038C00002EB0309029301EB0308049B72AA02EBCB
:1038D000C30B0DF5E07A019B002BC0F295814D469C
:1038E00000260027039C75E90223F4E9020100F099
:1038F00039FF02460B463046394600F07DFD44450F
:1039000006460F46EFD1EAE80267DA4509F10809F1
:10391000E1D1DDE90210049B01449B468A469B00ED
:103920000BA9A3F10802CB1808930CAB13440A931C
:1039300098AB03EBCB03BBF1000F53E9284529DD1E
:1039400070AB0DF1300903EBCB0800227A4B204617
:10395000294600F007FF01F09FF900F099FE0022D0
:10396000764B06460F4600F0FDFE02460B4620460B
:10397000294600F03FFD01F08FF978E9022349F86C
:10398000040B3946304600F037FD70AB98450446CD
:103990000D46DAD1DDF81490204629464A4600F05B
:1039A000ABFC00224FF07F5304460D4600F0DAFED8
:1039B00000F01EFC0022624B00F0D4FE02460B46D3
:1039C0002046294600F016FD0D46044601F064F934
:1039D000804600F05DFE0B4602462946204600F078
:1039E00009FD4B46002B06460F4640F3E1800BF1E4
:1039F000FF310CAA52F82150C9F1180345FA03F21D
:103A000002FA03F3EB1A0CA8C9F1170540F82130AC
:103A1000904443FA05F5002D2CDDBBF1000F08F1B1
:103A2000010840F399820C9C002C40F0A780BBF168
:103A3000010F0AD001220CA951F8044F531C002C8D
:103A400040F09E809B451A46F6D1059B002B0EDD6B
:103A5000012B00F0B581022B09D10BF1FF320CAB29
:103A600053F822300CA9C3F3150341F82230022D7C
:103A700000F0AF80002200233046394601F0DAF82A
:103A8000002800F06B82049B0BF1FF394B4510DCE2
:103A900000220BF18043013B0CA9089801EB830342
:103AA00053F80419834242EA0102F9D1002A40F096
:103AB000B580049B0CAA013B52F82330002B40F048
:103AC000A18001230A9A52F8041901330029FAD07F
:103AD0005B440BF101099945069349DC099A079962
:103AE00009EB020801EB0B0508F1804802EB030B20
:103AF000A39B08F1FF3803EB880870AB03EBC909FF
:103B0000A39B20A903EB8B0301EBC505029358F897
:103B1000040F00F0BDFD019B05F1080B002BC5E96A
:103B2000000128DB039C00260027083D0CE000BFB5
:103B3000ABAAAA2A18A108000000703E000070413C
:103B40000000204075E80201F4E9022300F00AFEBB
:103B500002460B463046394600F04EFC54450646B8
:103B60000F46EFD1029BE9E8026798455D46CED14A
:103B7000DDF818B0DCE600260027F3E70123002279
:103B8000C4F180740CA99B4541F822400EDD51F828
:103B900023206FF07F4001EB830301EB8B0100E0FA
:103BA0001A68821A43F8042B8B42F9D101244CE79E
:103BB00006D10BF1FF330CAA52F82350ED152AE77A
:103BC0000022874B01F054F8002840F0BE810546E2
:103BD00050E732463B460020824900F00BFC064687
:103BE0000F46002C3FF446AF059A00207D4900F0B7
:103BF00083FB02460B463046394600F0FBFB064687
:103C00000F4637E7012363E700260027EAE802674B
:103C1000DA4509F108097FF45EAE7AE6059A0CAB45
:103C200053F82930183ACDE9068505926BB909F1A8
:103C30008043013B0CA901EB830353F8041909F1FC
:103C4000FF39183A0029F8D00592059A00206549F5
:103C500000F052FBB9F1000F04460D46C0F2E781B7
:103C60004FF0000A4FEAC90370AA02EB0308089359
:103C70000CAB03EB8906DFF870B108F108070436D6
:103C800056F8040D00F004FD22462B4600F06AFDB4
:103C90005B4667E9020152462046294600F062FD74
:103CA0000CAB9E4204460D46EAD1C3464FF0000AD3
:103CB00048AB03930193CDF8149009F10103DDF8AB
:103CC00010900293B9F1000FC0F23C8142A3D3E9F6
:103CD0000023DFF818815D4600260027002403E05A
:103CE000544510DCF8E80223F5E8020100F03AFD43
:103CF00002460B463046394600F07EFB0134A145B2
:103D000006460F46ECDA019B0AF1010AE3E8026776
:103D10000193029BABF1080B9A45D3D1A29BDDF82E
:103D20001490032B45D8DFE813F0EC0006000600E2
:103D3000650048AB03930024B9F1000F21460CDB6A
:103D4000039B984603EBC905083575E90223204615
:103D500000F052FBA8450446F7D1079B002B40F02A
:103D6000368126460F4622460B460B9C0399C4E932
:103D70000067D1E9000100F03DFBB9F1000F0746F3
:103D80000E4611DD314601244E46039D3846F5E9C5
:103D9000022300F031FB0134A6420746F6DA079B06
:103DA0000E46002B40F025813A4633460B99C1E977
:103DB0000223069B03F007000DF5197DBDE8F08F87
:103DC0000BF1FF320CAB53F822300CA9C3F31603EE
:103DD00041F822304BE600BF00000040FB21F93FD4
:103DE0000000E03F0000F03F0000703E30A10800FE
:103DF00048AB0393B9F1000F40F33581039A4FEAC2
:103E0000C9030193D318CDF808909846D3E900ABC5
:103E1000914658E9026752465B463046394600F003
:103E2000EBFA04460D4602460B463046394600F092
:103E3000E1FA52465B4600F0DFFAC8E9000168E9A2
:103E40000245C145A246AB46E3D1DDF80890B9F181
:103E5000010F40F30881019B039A0DF5947B1344F5
:103E60009A46D3E9006701935AE9028932463B46F4
:103E70004046494600F0C0FA04460D4602460B464D
:103E80004046494600F0B6FA32463B4600F0B4FAE6
:103E9000CAE900016AE90245D34526462F46E3D127
:103EA00000231946019C039A083402F110051E46AE
:103EB00074E90223304600F09FFAA5420346F6D18A
:103EC0008C46039A1146D2E90082D1E902E90799AA
:103ED000002900F091800B9C09F100402361069BB2
:103EE00002F100420CF10041E06003F00700626063
:103EF0006161C4F80080C4F808E00DF5197DBDE8E3
:103F0000F08F0023089D039F08353D442E46194637
:103F10001C4676E90223204600F06EFAB7420346BB
:103F2000F6D10C46079A0AB104F10044184621461E
:103F30000B9BC3E90001069B03F007000DF5197DFB
:103F4000BDE8F08F00260027DDE6BBF1000F08F189
:103F500001087EDD022566E5002476E5CDE90685CB
:103F6000059D304639466A4200F0C6F900223F4BB3
:103F700006460F4600F07CFE00B300223C4B304664
:103F8000394600F0EFFB00F087FE044600F080FBAE
:103F90000022364B00F0E6FB0B460246394630461F
:103FA00000F028FA00F078FE0BF101090CAB18358F
:103FB00043F82B00059543F8294046E6304639463C
:103FC00000F06AFE0CABD94643F82B003DE60B46E9
:103FD00001F100450B9E0399C6E90045D1E90001B6
:103FE000224600F007FAB9F1000F07460E463FF7E8
:103FF000C9AE06F10046D7E618464646744617464F
:104000004D4661460B9BC3E90401C3E90067C3E960
:104010000245069B03F007000DF5197DBDE8F08F02
:10402000A7F108030393079BDB00029371E4A29BB3
:10403000032B3FF6BEAE01A252F823F04D4008001C
:10404000333D0800333D0800F13D080000231C46C5
:1040500068E732463B460020064900F0CBF90225CE
:1040600006460F4606E500239C462AE700007041FD
:104070000000703E0000F03F2DE9F04F21F00046B7
:10408000B6F1795F85B00C4690469946054604DA4C
:1040900000F002FE002800F085802A4623462846CC
:1040A000214600F05FFB06460F4602460B462846B7
:1040B000214600F057FB3EA3D3E9002382468B46FE
:1040C0003046394600F04EFB3BA3D3E9002300F015
:1040D00091F932463B4600F045FB39A3D3E9002372
:1040E00000F08AF932463B4600F03CFB36A3D3E9A8
:1040F000002300F07FF932463B4600F033FB34A347
:10410000D3E9002300F078F90E9BCDE900019BB3C1
:104110000022334B4046494600F024FBDDE90023F2
:10412000CDE902015046594600F01CFB02460B4601
:10413000DDE9020100F05EF932463B4600F012FB79
:1041400042464B4600F056F923A3D3E90023064626
:104150000F465046594600F005FB02460B463046D6
:10416000394600F049F902460B462846214600F040
:1041700041F905B0BDE8F08F02460B46304639469E
:1041800000F0F0FA14A3D3E9002300F033F952460B
:104190005B4600F0E7FA2A46234600F02DF905B009
:1041A000BDE8F08F2846214605B0BDE8F08F00BF7E
:1041B0007CD5CF5A3AD9E53DEB9C2B8AE6E55A3EB1
:1041C0007DFEB157E31DC73ED561C119A0012A3F4D
:1041D000A6F810111111813F495555555555C53F48
:1041E0000000E03F21F00043194670470000000046
:1041F000C1F30A522DE9F843A2F2FF36132E0B4603
:104200000D460446884607461DDC002E3DDB384A35
:1042100042FA06F901EA0902024319D032A3D3E9AE
:10422000002300F0E9F80022002300F02BFDD0B3BA
:10423000002D04DA4FF4801343FA06F6B04428EA5E
:10424000090500272FE0332E06DDB6F5806F2FD04D
:1042500019462046BDE8F8834FF0FF39A2F2134219
:1042600029FA02F919EA000FF2D01FA3D3E90023BB
:1042700000F0C2F80022002300F004FD98B1002DE8
:1042800024DB27EA090745460DE017A3D3E90023FD
:1042900000F0B2F80022002300F0F4FC18B1002D69
:1042A0000BDB00273D463C4629462046BDE8F88307
:1042B000024600F0A1F80446CBE725F000430D4A82
:1042C0001F43002F18BF15460027ECE7142E08D017
:1042D0000123C6F1340603FA06F6371928BF9844BD
:1042E000CFE705F10108CCE79C7500883CE4377EF8
:1042F000FFFF0F000000F0BFF8B5C1F30A530446FA
:104300000D460E4617460BBB034621F000463343CD
:104310001BD0314B002200F025FA304B04469F425F
:104320000D463DDB0E46C1F30A53363B40F2FE72AA
:104330003B44934213DC002B22DD26F0FF4626F49B
:10434000E00646EA035520462946F8BD40F2FF72D2
:104350009342EBD102460B4600F04EF8F8BD05F053
:10436000004444F0FC4141F45F1141F4105116A3A4
:10437000D3E900231A4841F03C0100F0F3F9F8BDFD
:1043800013F1350F12DA4CF250339F42E7DC05F09F
:10439000004343F0D27141F4B731124841F01F019C
:1043A0000BA3D3E9002300F0DDF9F8BD26F0FF46AA
:1043B00026F4E006363346EA035520462946002215
:1043C000094B00F0CFF9F8BD9C7500883CE4377EBE
:1043D00059F3F8C21F6EA50100005043B03CFFFF27
:1043E0009C75008859F3F8C20000903C81F00041B0
:1043F00002E000BF83F0004330B54FEA41044FEACA
:10440000430594EA050F08BF90EA020F1FBF54EA64
:10441000000C55EA020C7FEA645C7FEA655C00F000
:10442000E2804FEA5454D4EB5555B8BF6D420CDDD1
:104430002C4480EA020281EA030382EA000083EA54
:10444000010180EA020281EA0303362D88BF30BDF4
:1044500011F0004F4FEA01314FF4801C4CEA11314A
:1044600002D0404261EB410113F0004F4FEA0333A9
:104470004CEA133302D0524263EB430394EA050F34
:1044800000F0A780A4F10104D5F1200E0DDB02FAA3
:104490000EFC22FA05F2801841F1000103FA0EF237
:1044A000801843FA05F359410EE0A5F120050EF1FD
:1044B000200E012A03FA0EFC28BF4CF0020C43FA2E
:1044C00005F3C01851EBE37101F0004507D54FF03B
:1044D000000EDCF1000C7EEB00006EEB0101B1F58B
:1044E000801F1BD3B1F5001F0CD349085FEA3000D1
:1044F0004FEA3C0C04F101044FEA445212F5800FDC
:1045000080F09A80BCF1004F08BF5FEA500C50F178
:10451000000041EB045141EA050130BD5FEA4C0C5B
:10452000404141EB010111F4801FA4F10104E9D1E4
:1045300091F0000F04BF01460020B1FA81F308BFDB
:104540002033A3F10B03B3F120020CDA0C3208DDA7
:1045500002F1140CC2F10C0201FA0CF021FA02F182
:104560000CE002F11402D8BFC2F1200C01FA02F1F2
:1045700020FA0CFCDCBF41EA0C019040E41AA2BF17
:1045800001EB0451294330BD6FEA04041F3C1CDADF
:104590000C340EDC04F11404C4F1200220FA04F0FF
:1045A00001FA02F340EA030021FA04F345EA0301A9
:1045B00030BDC4F10C04C4F1200220FA02F001FA6B
:1045C00004F340EA0300294630BD21FA04F02946ED
:1045D00030BD94F0000F83F4801306BF81F4801186
:1045E0000134013D4EE77FEA645C18BF7FEA655CF9
:1045F00029D094EA050F08BF90EA020F05D054EACB
:10460000000C04BF1946104630BD91EA030F1EBFCF
:104610000021002030BD5FEA545C05D140004941D3
:1046200028BF41F0004130BD14F580043CBF01F5C6
:10463000801130BD01F0004545F0FE4141F47001AC
:104640004FF0000030BD7FEA645C1ABF1946104687
:104650007FEA655C1CBF0B46024650EA013406BF88
:1046600052EA033591EA030F41F4002130BD00BF47
:1046700090F0000F04BF0021704730B54FF4806404
:1046800004F132044FF000054FF0000150E700BF85
:1046900090F0000F04BF0021704730B54FF48064E4
:1046A00004F1320410F0004548BF40424FF00001D1
:1046B0003EE700BF42004FEAE2014FEA31014FEA14
:1046C00002701FBF12F07F4393F07F4F81F0605163
:1046D000704732F07F4208BF704793F07F4F04BFAE
:1046E00041F40021704730B54FF4607401F000458B
:1046F00021F000411CE700BF50EA010208BF7047EB
:1047000030B54FF000050AE050EA010208BF7047DB
:1047100030B511F0004502D5404261EB41014FF444
:10472000806404F132045FEA915C3FF4D8AE4FF04C
:1047300003025FEADC0C18BF03325FEADC0C18BF2F
:10474000033202EBDC02C2F1200300FA03FC20FA80
:1047500002F001FA03FE40EA0E0021FA02F11444CD
:10476000BDE600BF70B54FF0FF0C4CF4E06C1CEAE6
:1047700011541DBF1CEA135594EA0C0F95EA0C0F57
:1047800000F0DEF82C4481EA030621EA4C5123EACA
:104790004C5350EA013518BF52EA033541F48011F9
:1047A00043F4801338D0A0FB02CE4FF00005E1FBAC
:1047B00002E506F00042E0FB03E54FF00006E1FBF6
:1047C00003569CF0000F18BF4EF0010EA4F1FF0439
:1047D000B6F5007F64F5407404D25FEA4E0E6D4179
:1047E00046EB060642EAC62141EA55514FEAC5208A
:1047F00040EA5E504FEACE2EB4F1FD0C88BFBCF506
:10480000E06F1ED8BEF1004F08BF5FEA500E50F1B6
:10481000000041EB045170BD06F0004646EA01017C
:1048200040EA020081EA0301B4EB5C04C2BFD4EBAE
:104830000C0541EA045170BD41F480114FF0000EA7
:10484000013C00F3AB8014F1360FDEBF002001F015
:10485000004170BDC4F10004203C35DA0C341BDC8F
:1048600004F11404C4F1200500FA05F320FA04F061
:1048700001FA05F240EA020001F0004221F0004195
:1048800010EBD37021FA04F642EB06015EEA430E08
:1048900008BF20EAD37070BDC4F10C04C4F1200538
:1048A00000FA04F320FA05F001FA04F240EA0200EB
:1048B00001F0004110EBD37041F100015EEA430EBC
:1048C00008BF20EAD37070BDC4F1200500FA05F2DC
:1048D0004EEA020E20FA04F301FA05F243EA02035B
:1048E00021FA04F001F0004121FA04F220EA02006A
:1048F00000EBD3705EEA430E08BF20EAD37070BDB0
:1049000094F0000F0FD101F00046400041EB01018F
:1049100011F4801F08BF013CF7D041EA060195F071
:10492000000F18BF704703F00046520043EB03032B
:1049300013F4801F08BF013DF7D043EA0603704718
:1049400094EA0C0F0CEA135518BF95EA0C0F0CD023
:1049500050EA410618BF52EA4306D1D181EA030169
:1049600001F000414FF0000070BD50EA410606BF63
:104970001046194652EA430619D094EA0C0F02D1A8
:1049800050EA013613D195EA0C0F05D152EA0336ED
:104990001CBF104619460AD181EA030101F000410B
:1049A00041F0FE4141F470014FF0000070BD41F054
:1049B000FE4141F4780170BD70B54FF0FF0C4CF42E
:1049C000E06C1CEA11541DBF1CEA135594EA0C0F4D
:1049D00095EA0C0F00F0A7F8A4EB050481EA030E9A
:1049E00052EA03354FEA013100F088804FEA033381
:1049F0004FF0805545EA131343EA12634FEA02224F
:104A000045EA111545EA10654FEA00260EF000410F
:104A10009D4208BF964244F1FD0404F5407402D261
:104A20005B084FEA3202B61A65EB03055B084FEAF2
:104A300032024FF480104FF4002CB6EB020E75EBEF
:104A4000030E22BFB61A754640EA0C005B084FEA17
:104A50003202B6EB020E75EB030E22BFB61A754694
:104A600040EA5C005B084FEA3202B6EB020E75EBDF
:104A7000030E22BFB61A754640EA9C005B084FEA57
:104A80003202B6EB020E75EB030E22BFB61A754664
:104A900040EADC0055EA060E18D04FEA051545EA53
:104AA00016754FEA06164FEAC30343EA52734FEAFC
:104AB000C2025FEA1C1CC0D111F4801F0BD141EA75
:104AC00000014FF000004FF0004CB6E711F4801FDA
:104AD00004BF01430020B4F1FD0C88BFBCF5E06FBA
:104AE0003FF6AFAEB5EB030C04BFB6EB020C5FEACA
:104AF000500C50F1000041EB045170BD0EF0004E1F
:104B00004EEA113114EB5C04C2BFD4EB0C0541EA50
:104B1000045170BD41F480114FF0000E013C90E64D
:104B200045EA060E8DE60CEA135594EA0C0F08BF11
:104B300095EA0C0F3FF43BAF94EA0C0F0AD150EA10
:104B400001347FF434AF95EA0C0F7FF425AF1046A3
:104B500019462CE795EA0C0F06D152EA03353FF4CB
:104B6000FDAE1046194622E750EA410618BF52EA48
:104B700043067FF4C5AE50EA41047FF40DAF52EA1C
:104B800043057FF4EBAE12E74FF0FF3C06E000BFB9
:104B90004FF0010C02E000BF4FF0010C4DF804CDC6
:104BA0004FEA410C7FEA6C5C4FEA430C18BF7FEA86
:104BB0006C5C1BD001B050EA410C0CBF52EA430CB4
:104BC00091EA030F02BF90EA020F0020704710F134
:104BD000000F91EA030F58BF994208BF90422CBFC3
:104BE000D8176FEAE37040F0010070474FEA410CBC
:104BF0007FEA6C5C02D150EA013C07D14FEA430CDA
:104C00007FEA6C5CD6D152EA033CD3D05DF8040B4A
:104C1000704700BF8446104662468C46194663467C
:104C200000E000BF01B5FFF7B7FF002848BF10F153
:104C3000000F01BD4DF808EDFFF7F4FF0CBF012098
:104C400000205DF808FB00BF4DF808EDFFF7EAFF14
:104C500034BF012000205DF808FB00BF4DF808EDCF
:104C6000FFF7E0FF94BF012000205DF808FB00BFC4
:104C70004DF808EDFFF7CEFF94BF012000205DF84E
:104C800008FB00BF4DF808EDFFF7C4FF34BF01205B
:104C900000205DF808FB00BF4FEA410212F5001248
:104CA00015D211D56FF47873B3EB625212D94FEA73
:104CB000C12343F0004343EA505311F0004F23FA5D
:104CC00002F018BF404270474FF00000704750EAB2
:104CD000013005D111F0004008BF6FF0004070476F
:104CE0004FF00000704700BF4A0011D212F50012C9
:104CF00011D20DD56FF47873B3EB62520ED44FEA34
:104D0000C12343F0004343EA505323FA02F07047B3
:104D10004FF00000704750EA013002D14FF0FF30F1
:104D200070474FF00000704780F0004002E000BF85
:104D300081F0004142001FBF5FEA410392EA030F86
:104D40007FEA226C7FEA236C6AD04FEA1262D2EBD0
:104D50001363C1BFD218414048404140B8BF5B42D5
:104D6000192B88BF704710F0004F40F4000020F06E
:104D70007F4018BF404211F0004F41F4000121F084
:104D80007F4118BF494292EA030F3FD0A2F10102CE
:104D900041FA03FC10EB0C00C3F1200301FA03F10C
:104DA00000F0004302D5494260EB4000B0F5000F2F
:104DB00013D3B0F1807F06D340084FEA310102F1EE
:104DC0000102FE2A51D2B1F1004F40EBC25008BFA0
:104DD00020F0010040EA03007047490040EB00006A
:104DE00010F4000FA2F10102EDD1B0FA80FCACF199
:104DF000080CB2EB0C0200FA0CF0AABF00EBC25098
:104E000052421843BCBFD0401843704792F0000F85
:104E100081F4000106BF80F400000132013BB5E7D8
:104E20004FEA41037FEA226C18BF7FEA236C21D04E
:104E300092EA030F04D092F0000F08BF08467047B3
:104E400090EA010F1CBF0020704712F07F4F04D181
:104E5000400028BF40F00040704712F100723CBF94
:104E600000F50000704700F0004343F0FE4040F4BE
:104E7000000070477FEA226216BF08467FEA23637C
:104E80000146420206BF5FEA412390EA010F40F467
:104E9000800070474FF0000304E000BF10F00043B3
:104EA00048BF40425FEA000C08BF704743F096439A
:104EB00001464FF000001CE050EA010208BF7047B5
:104EC0004FF000030AE000BF50EA010208BF70473C
:104ED00011F0004302D5404261EB41015FEA010C51
:104EE00002BF84460146002043F0B64308BFA3F149
:104EF0008053A3F50003BCFA8CF2083AA3EBC2532B
:104F000010DB01FA02FC634400FA02FCC2F1200249
:104F1000BCF1004F20FA02F243EB020008BF20F080
:104F20000100704702F1200201FA02FCC2F12002E6
:104F300050EA4C0021FA02F243EB020008BF20EADB
:104F4000DC7070474FF0FF0C1CEAD0521EBF1CEA09
:104F5000D15392EA0C0F93EA0C0F6FD01A4480EAF7
:104F6000010C400218BF5FEA41211ED04FF00063E0
:104F700043EA501043EA5111A0FB01310CF000400C
:104F8000B1F5000F3EBF490041EAD3715B0040EA32
:104F9000010062F17F02FD2A1DD8B3F1004F40EB02
:104FA000C25008BF20F00100704790F0000F0CF0D5
:104FB000004C08BF49024CEA502040EA51207F3A99
:104FC000C2BFD2F1FF0340EAC250704740F4000074
:104FD0004FF00003013A5DDC12F1190FDCBF00F065
:104FE00000407047C2F10002410021FA02F1C2F113
:104FF000200200FA02FC5FEA310040F1000053EAAF
:105000004C0308BF20EADC70704792F0000F00F0FC
:10501000004C02BF400010F4000F013AF9D040EA02
:105020000C0093F0000F01F0004C02BF490011F496
:10503000000F013BF9D041EA0C018FE70CEAD15394
:1050400092EA0C0F18BF93EA0C0F0AD030F0004C14
:1050500018BF31F0004CD8D180EA010000F00040C8
:10506000704790F0000F17BF90F0004F084691F086
:10507000000F91F0004F14D092EA0C0F01D14202C0
:105080000FD193EA0C0F03D14B0218BF084608D189
:1050900080EA010000F0004040F0FE4040F40000D3
:1050A000704740F0FE4040F4400070474FF0FF0C66
:1050B0001CEAD0521EBF1CEAD15392EA0C0F93EAAD
:1050C0000C0F69D0A2EB030280EA010C49024FEAFF
:1050D000402037D04FF0805343EA111143EA1013B8
:1050E0000CF000408B4238BF5B0042F17D024FF470
:1050F000000C8B4224BF5B1A40EA0C00B3EB510F4B
:1051000024BFA3EB510340EA5C00B3EB910F24BF33
:10511000A3EB910340EA9C00B3EBD10F24BFA3EBB8
:10512000D10340EADC001B0118BF5FEA1C1CE0D180
:10513000FD2A3FF650AF8B4240EBC25008BF20F033
:10514000010070470CF0004C4CEA50207F32C2BF87
:10515000D2F1FF0340EAC250704740F400004FF024
:105160000003013A37E792F0000F00F0004C02BF55
:10517000400010F4000F013AF9D040EA0C0093F01F
:10518000000F01F0004C02BF490011F4000F013B79
:10519000F9D041EA0C0195E70CEAD15392EA0C0FE1
:1051A00008D142027FF47DAF93EA0C0F7FF470AF19
:1051B000084676E793EA0C0F04D14B023FF44CAF5C
:1051C00008466EE730F0004C18BF31F0004CCAD1F1
:1051D00030F000427FF45CAF31F000437FF43CAF2D
:1051E0005FE700BF42000ED2B2F1FE4F0BD34FF08B
:1051F0009E03B3EB126209D44FEA002343F000434D
:1052000023FA02F070474FF00000704712F1610F6F
:1052100001D1420202D14FF0FF3070474FF0000041
:10522000704700BF53B94AB9002908BF00281CBF06
:105230004FF0FF314FF0FF3000F074B9ADF1080CC2
:105240006DE904CE00F006F8DDF804E0DDE90223A4
:1052500004B070472DE9F0478C460446089E002BA9
:105260004BD18A42154667D9B2FA82F24AB1C2F1ED
:10527000200701FA02F320FA07F7954047EA030CEA
:1052800094404FEA154EBCFBFEF71FFA85F80EFB63
:1052900017C307FB08F9210C41EA0343994509D9D3
:1052A000EB1807F1FF3180F01C81994540F219811C
:1052B000023F2B44A3EB0903B3FBFEF00EFB1033BC
:1052C00000FB08F1A4B244EA0344A14209D92C1915
:1052D00000F1FF3380F00781A14240F204810238DF
:1052E0002C4440EA07400027641A1EB10023D44032
:1052F000C6E900433946BDE8F0878B4209D9002E44
:1053000000F0EC800027C6E9000138463946BDE8C8
:10531000F087B3FA83F7002F48D18B4202D3824241
:1053200000F2FB80841A61EB030301209C46002EEF
:10533000E0D0C6E9004CDDE702B9FFDEB2FA82F246
:10534000002A40F08F800127491B4FEA15481FFAB9
:1053500085F9B1FBF8FE08FB1E1109FB0EF04FEAC0
:10536000144C4CEA0143984207D9EB180EF1FF3177
:1053700002D2984200F2CD808E461B1AB3FBF8F0A1
:1053800008FB103309FB00F9A4B244EA0344A14529
:1053900007D92C1900F1FF3302D2A14500F2B680E3
:1053A0001846A4EB090440EA0E409EE7C7F1200529
:1053B000BB4022FA05FC4CEA030C21FA05F44FEA43
:1053C0001C4EB4FBFEF91FFA8CF80EFB194420FAB0
:1053D00005F3B94009FB08FA19430B0C43EA0444EE
:1053E000A24502FA07F200FA07F30BD91CEB0404FA
:1053F00009F1FF3080F08880A24540F28580A9F154
:1054000002096444A4EB0A04B4FBFEF00EFB104452
:1054100000FB08FA89B241EA0444A24508D91CEB12
:10542000040400F1FF316BD2A24569D9023864440B
:1054300040EA0940A0FB0289A4EB0A044C4541461E
:10544000CE4654D351D0002E69D05A1A64EB0E04C4
:1054500004FA05F522FA07F3FC401D43C6E900549F
:10546000002747E79540C2F1200321FA03F04FEAF5
:105470001548B0FBF8F71FFA85F908FB170024FA66
:1054800003F3914007FB09FC0B43190C41EA00416F
:105490008C4504FA02F407D9691807F1FF3031D2BC
:1054A0008C452FD9023F2944A1EB0C01B1FBF8F048
:1054B00008FB101C00FB09FE99B241EA0C418E4525
:1054C00007D9691800F1FF3318D28E4516D9023872
:1054D0002944A1EB0E0140EA07473AE73746304638
:1054E00008E70F46E6E61846FBE64345ABD2B8EBC5
:1054F000020169EB0C0201389646A4E71846E8E77A
:10550000084695E70746CFE781467BE702382C44FB
:1055100047E7AEF1020E2B442FE7384607E7374640
:10552000E8E600BF704700BF002301461A46184650
:1055300001F06ABB38B50A4C0A4D641BA4100AD0AE
:1055400004F18043013B05EB8305013C55F8043928
:105550009847002CF9D1BDE8384004F079BF00BF6E
:1055600074A4080070A4080070B50D4E0D4D761B94
:10557000B61006D00024013455F8043B9847A642E3
:10558000F9D1094E094D04F059FF761BB61006D02B
:105590000024013455F8043B9847A642F9D170BD68
:1055A00048A4080048A4080050A4080048A4080023
:1055B000F0B4860743D0541E002A3ED0CAB2034638
:1055C00002E014F1FF3438D303F8012B9D07F8D122
:1055D000032C2BD9CDB245EA05250F2C45EA05450C
:1055E00016D9A4F110073F0903F1200606EB0716B0
:1055F00003F1100242E9045542E902551032B24269
:10560000F8D104F00F040137032C03EB07130DD975
:105610001E462246043A032A46F8045BFAD8221FA3
:1056200022F003020432134404F003042CB1C9B283
:105630001C4403F8011B9C42FBD1F0BC704714468C
:105640000346C5E70CB470B56FF000459CB020ACC4
:1056500054F8042B094E02910691234602A90194A5
:105660000795CDE9045600F05BF80022029B1A7002
:105670001CB0BDE8704002B0704700BF0802FFFFD9
:105680000EB4034630B56FF000449CB01FA951F82A
:10569000042B0A480A4D0293069301910B460068B9
:1056A00002A90794CDE9044500F03AF80022029BD4
:1056B0001A701CB0BDE8304003B07047F8030720F3
:1056C0000802FFFF20F0030110F00300C0F100000A
:1056D00051F8043B00F1040C4FEACC0C6FF00002CF
:1056E0001CBF22FA0CF213434FF0010C4CEA0C2CB5
:1056F0004CEA0C4CA3EB0C0222EA030212EACC1295
:1057000004BF51F8043B0430F4D0C2F1000102EAB6
:105710000102B2FA82F2C2F11F0200EBD20070471E
:105720002DE9F04FC3B00C460C9190460F930D90AD
:1057300002F094FB036818461A93FFF7C3FFA3898E
:1057400019901D0603D52369002B00F0368700232E
:105750000DF1C80AD146C346CDE91633CDE926334B
:1057600015931393149318931B930A93CDF894A055
:105770009BF80030002B00F09780252B5C4602D16F
:105780001AE0252B03D014F8013F002BF9D1A4EB2C
:105790000B0575B1DDE9263201332A44072BC9E92F
:1057A00000B5CDE9263277DC09F108090A9B2B44C4
:1057B0000A932378002B77D000234FF0FF301A464E
:1057C0008DF8773019460B939846637804F1010BF6
:1057D00009901F460BF1010BA7F12003582B00F293
:1057E0007483DFE813F0D10272037203CC027203F8
:1057F00072037203720372037203BF02BA0272036E
:1058000066034C0372036B03B600B600B600B60025
:10581000B600B600B600B600B6007203720372039B
:10582000720372037203720372037203720334030E
:10583000F5027203F5027203720372037203F0023F
:1058400072037203A5007203720372037203720380
:10585000750072037203980272037203720372037B
:1058600072037203720372037203720379012B01D4
:10587000F502F502F50226012B01720372031901EC
:1058800072030301A700CA00C5007203DA007203A5
:10589000770072037203D90225AADDE90C1003F028
:1058A0000BFD40B9D14681E7279B23B10D9825AA6E
:1058B0000C9903F001FD0C9B9B8913F0400F0A9B90
:1058C00018BF4FF0FF330A930A9843B0BDE8F08F3A
:1058D00048F0100818F0200F00F048850F9C07349E
:1058E00024F0070303F10802D3E9004501230F92D6
:1058F0000026099A8DF87760013200F0098428F0BB
:105900008002079254EA050240F0BC80099A002AFE
:1059100040F0CC86002B40F0ED8418F001030E938C
:1059200000F06085302342AA02F8413D1192CAE09E
:1059300048F0100818F0200300F00D850F9C073484
:1059400024F0070303F10802D3E900450F92002376
:10595000CEE70020A7F130031BF8017B00EB8000AD
:1059600003EB4000A7F13003092BF5D90B9033E787
:1059700048F020089BF800302BE747F630030F9AD9
:10598000ADF87830131D0F939F4B1468189348F0AF
:105990000208002502237827AAE700250F9A8DF830
:1059A00077501368141D1193002B00F03086099A6C
:1059B000531C00F0D8862946119802F01BFD0028E0
:1059C00000F0CE87119B0995C31ACDE90E34CDF8AE
:1059D0001C8023EAE3739DF8776008931295002EEC
:1059E00000F08D80089B0133089388E0002A41F085
:1059F000EF800F9A18F0200F52F8043B0F9240F0FE
:105A00002A8518F0100F40F0278618F0400F00F09C
:105A100023860A9A1A80ABE69BF800306C2B03BFF2
:105A20009BF8013048F020080BF1010B48F01008FA
:105A3000CFE648F040089BF80030CAE6002A41F063
:105A4000C38018F0200F00F00B820F9C073424F065
:105A5000070303F108020F92D3E90045002C75F10A
:105A60000003C0F2CB84099B9DF87760013300F0FE
:105A7000CF8428F08002079254EA05024FF0010318
:105A80003FF444AF012B00F04883022B00F09F83CA
:105A9000514600E01146E20842EA4572E80804F087
:105AA000070305461446303354EA050001F8013C6B
:105AB00001F1FF32EED107981192C00700F1758411
:105AC000AAEB02030E93099B0E9A9342B8BF1346AA
:105AD00008930023129382E7002301210F981E46AA
